{
  "transactions": [
    {
      "hash": "0x0ae8cea2c47d84904272514ad4e811e795216c8c6aa3de6c6ac037e6220e3eab",
      "transactionType": "CALL",
      "contractName": null,
      "contractAddress": "0xceba9300f2b948710d2653dd7b07f33a8b32118c",
      "function": "approve(address,uint256)",
      "arguments": [
        "0x3cecf21B37fF98Ec310deE68c8958f6f9e8D67E3",
        "2000"
      ],
      "transaction": {
        "from": "0x8e8e5f2eb9b8cd64942777e287982ff986a2c5a1",
        "to": "0xceba9300f2b948710d2653dd7b07f33a8b32118c",
        "gas": "0x13ca2",
        "value": "0x0",
        "input": "0x095ea7b30000000000000000000000003cecf21b37ff98ec310dee68c8958f6f9e8d67e300000000000000000000000000000000000000000000000000000000000007d0",
        "nonce": "0x21",
        "chainId": "0xa4ec"
      },
      "additionalContracts": [],
      "isFixedGasLimit": false
    },
    {
      "hash": "0x8a7c7f3b58cf7e718380aa38c71d63563ae6f73289f6045f0c71dd177eae97d6",
      "transactionType": "CALL",
      "contractName": null,
      "contractAddress": "0x3cecf21b37ff98ec310dee68c8958f6f9e8d67e3",
      "function": "swapExactTokensForTokens(uint256,uint256,(address,bytes32,address,address)[])",
      "arguments": [
        "1000",
        "0",
        "[(0x22d9db95E6Ae61c104A7B6F6C78D7993B94ec901, 0xacc988382b66ee5456086643dcfd9a5ca43dd8f428f6ef22503d8b8013bcffd7, 0xcebA9300f2b948710d2653dD7B07f33A8B32118C, 0x765DE816845861e75A25fCA122bb6898B8B1282a), (0x22d9db95E6Ae61c104A7B6F6C78D7993B94ec901, 0x89de88b8eb790de26f4649f543cb6893d93635c728ac857f0926e842fb0d298b, 0x765DE816845861e75A25fCA122bb6898B8B1282a, 0x456a3D042C0DbD3db53D5489e98dFb038553B0d0)]"
      ],
      "transaction": {
        "from": "0x8e8e5f2eb9b8cd64942777e287982ff986a2c5a1",
        "to": "0x3cecf21b37ff98ec310dee68c8958f6f9e8d67e3",
        "gas": "0xb90d3",
        "value": "0x0",
        "input": "0x723d40f700000000000000000000000000000000000000000000000000000000000003e800000000000000000000000000000000000000000000000000000000000000000000000000000000000000000000000000000000000000000000000000000060000000000000000000000000000000000000000000000000000000000000000200000000000000000000000022d9db95e6ae61c104a7b6f6c78d7993b94ec901acc988382b66ee5456086643dcfd9a5ca43dd8f428f6ef22503d8b8013bcffd7000000000000000000000000ceba9300f2b948710d2653dd7b07f33a8b32118c000000000000000000000000765de816845861e75a25fca122bb6898b8b1282a00000000000000000000000022d9db95e6ae61c104a7b6f6c78d7993b94ec90189de88b8eb790de26f4649f543cb6893d93635c728ac857f0926e842fb0d298b000000000000000000000000765de816845861e75a25fca122bb6898b8b1282a000000000000000000000000456a3d042c0dbd3db53d5489e98dfb038553b0d0",
        "nonce": "0x22",
        "chainId": "0xa4ec"
      },
      "additionalContracts": [],
      "isFixedGasLimit": false
    },
    {
      "hash": "0xf284c670f194b31c3b9141a23f4bea25f2ff37a98613e9803a9a29ae6daed479",
      "transactionType": "CALL",
      "contractName": null,
      "contractAddress": "0x3cecf21b37ff98ec310dee68c8958f6f9e8d67e3",
      "function": "swapTokensForExactTokens(uint256,uint256,(address,bytes32,address,address)[])",
      "arguments": [
        "900",
        "1000",
        "[(0x22d9db95E6Ae61c104A7B6F6C78D7993B94ec901, 0xacc988382b66ee5456086643dcfd9a5ca43dd8f428f6ef22503d8b8013bcffd7, 0xcebA9300f2b948710d2653dD7B07f33A8B32118C, 0x765DE816845861e75A25fCA122bb6898B8B1282a), (0x22d9db95E6Ae61c104A7B6F6C78D7993B94ec901, 0x0d739efbfc30f303e8d1976c213b4040850d1af40f174f4169b846f6fd3d2f20, 0x765DE816845861e75A25fCA122bb6898B8B1282a, 0xEB466342C4d449BC9f53A865D5Cb90586f405215), (0x22d9db95E6Ae61c104A7B6F6C78D7993B94ec901, 0xf418803158d881fda22694067bf6479476cec22ecfeeca2f6a65a6259bdbb9c0, 0xEB466342C4d449BC9f53A865D5Cb90586f405215, 0xD8763CBa276a3738E6DE85b4b3bF5FDed6D6cA73), (0x22d9db95E6Ae61c104A7B6F6C78D7993B94ec901, 0xfca6d94b46122eb9a4b86cf9d3e1e856fea8a826d0fc26c5baf17c43fbaf0f48, 0xD8763CBa276a3738E6DE85b4b3bF5FDed6D6cA73, 0x061cc5a2C863E0C1Cb404006D559dB18A34C762d)]"
      ],
      "transaction": {
        "from": "0x8e8e5f2eb9b8cd64942777e287982ff986a2c5a1",
        "to": "0x3cecf21b37ff98ec310dee68c8958f6f9e8d67e3",
        "gas": "0x13e4d7",
        "value": "0x0",
        "input": "0xd9b67a31000000000000000000000000000000000000000000000000000000000000038400000000000000000000000000000000000000000000000000000000000003e80000000000000000000000000000000000000000000000000000000000000060000000000000000000000000000000000000000000000000000000000000000400000000000000000000000022d9db95e6ae61c104a7b6f6c78d7993b94ec901acc988382b66ee5456086643dcfd9a5ca43dd8f428f6ef22503d8b8013bcffd7000000000000000000000000ceba9300f2b948710d2653dd7b07f33a8b32118c000000000000000000000000765de816845861e75a25fca122bb6898b8b1282a00000000000000000000000022d9db95e6ae61c104a7b6f6c78d7993b94ec9010d739efbfc30f303e8d1976c213b4040850d1af40f174f4169b846f6fd3d2f20000000000000000000000000765de816845861e75a25fca122bb6898b8b1282a000000000000000000000000eb466342c4d449bc9f53a865d5cb90586f40521500000000000000000000000022d9db95e6ae61c104a7b6f6c78d7993b94ec901f418803158d881fda22694067bf6479476cec22ecfeeca2f6a65a6259bdbb9c0000000000000000000000000eb466342c4d449bc9f53a865d5cb90586f405215000000000000000000000000d8763cba276a3738e6de85b4b3bf5fded6d6ca7300000000000000000000000022d9db95e6ae61c104a7b6f6c78d7993b94ec901fca6d94b46122eb9a4b86cf9d3e1e856fea8a826d0fc26c5baf17c43fbaf0f48000000000000000000000000d8763cba276a3738e6de85b4b3bf5fded6d6ca73000000000000000000000000061cc5a2c863e0c1cb404006d559db18a34c762d",
        "nonce": "0x23",
        "chainId": "0xa4ec"
      },
      "additionalContracts": [],
      "isFixedGasLimit": false
    }
  ],
  "receipts": [
    {
      "status": "0x1",
      "cumulativeGasUsed": "0x2c6d16",
      "logs": [
        {
          "address": "0xceba9300f2b948710d2653dd7b07f33a8b32118c",
          "topics": [
            "0x8c5be1e5ebec7d5bd14f71427d1e84f3dd0314c0f7b2291e5b200ac8c7c3b925",
            "0x0000000000000000000000008e8e5f2eb9b8cd64942777e287982ff986a2c5a1",
            "0x0000000000000000000000003cecf21b37ff98ec310dee68c8958f6f9e8d67e3"
          ],
          "data": "0x00000000000000000000000000000000000000000000000000000000000007d0",
          "blockHash": "0x21f11dc42803f592ec4f01011cd283358cbf1e291c811bbee3d1c48aad7b6679",
          "blockNumber": "0x18a998a",
          "transactionHash": "0x0ae8cea2c47d84904272514ad4e811e795216c8c6aa3de6c6ac037e6220e3eab",
          "transactionIndex": "0xb",
          "logIndex": "0x44",
          "removed": false
        }
      ],
      "logsBloom": "0x00000000000000000000100000000200000000000000000000000000000000000000000000000000000200000000000000000000000000000000000000200000000000000000000000000000000000000000000000000000000000000000000000000000000000000000000000000000000000000000000000000000000040000000000000000000000000000000000000000000000000000000000000000000020000000000000000000000000000000008000000000000000000000000000000000000000000000000020000000000000000000000000000000000000000000018000000000000000800000000000000000080000000000000000000000000",
      "type": "0x0",
      "transactionHash": "0x0ae8cea2c47d84904272514ad4e811e795216c8c6aa3de6c6ac037e6220e3eab",
      "transactionIndex": "0xb",
      "blockHash": "0x21f11dc42803f592ec4f01011cd283358cbf1e291c811bbee3d1c48aad7b6679",
      "blockNumber": "0x18a998a",
      "gasUsed": "0xd881",
      "effectiveGasPrice": "0x2540be400",
      "from": "0x8e8e5f2eb9b8cd64942777e287982ff986a2c5a1",
      "to": "0xceba9300f2b948710d2653dd7b07f33a8b32118c",
      "contractAddress": null
    },
    {
      "status": "0x1",
      "cumulativeGasUsed": "0x34ccac",
      "logs": [
        {
          "address": "0xceba9300f2b948710d2653dd7b07f33a8b32118c",
          "topics": [
            "0xddf252ad1be2c89b69c2b068fc378daa952ba7f163c4a11628f55a4df523b3ef",
            "0x0000000000000000000000008e8e5f2eb9b8cd64942777e287982ff986a2c5a1",
            "0x0000000000000000000000003cecf21b37ff98ec310dee68c8958f6f9e8d67e3"
          ],
          "data": "0x00000000000000000000000000000000000000000000000000000000000003e8",
          "blockHash": "0x21f11dc42803f592ec4f01011cd283358cbf1e291c811bbee3d1c48aad7b6679",
          "blockNumber": "0x18a998a",
          "transactionHash": "0x8a7c7f3b58cf7e718380aa38c71d63563ae6f73289f6045f0c71dd177eae97d6",
          "transactionIndex": "0xc",
          "logIndex": "0x45",
          "removed": false
        },
        {
          "address": "0xceba9300f2b948710d2653dd7b07f33a8b32118c",
          "topics": [
            "0x8c5be1e5ebec7d5bd14f71427d1e84f3dd0314c0f7b2291e5b200ac8c7c3b925",
            "0x0000000000000000000000003cecf21b37ff98ec310dee68c8958f6f9e8d67e3",
            "0x000000000000000000000000777a8255ca72412f0d706dc03c9d1987306b4cad"
          ],
          "data": "0x00000000000000000000000000000000000000000000000000000000000003e8",
          "blockHash": "0x21f11dc42803f592ec4f01011cd283358cbf1e291c811bbee3d1c48aad7b6679",
          "blockNumber": "0x18a998a",
          "transactionHash": "0x8a7c7f3b58cf7e718380aa38c71d63563ae6f73289f6045f0c71dd177eae97d6",
          "transactionIndex": "0xc",
          "logIndex": "0x46",
          "removed": false
        },
        {
          "address": "0x22d9db95e6ae61c104a7b6f6c78d7993b94ec901",
          "topics": [
            "0x949f5db193cbfa01f2d443b1c656bfede15497de0d86838cea089bd60c438342",
            "0xacc988382b66ee5456086643dcfd9a5ca43dd8f428f6ef22503d8b8013bcffd7"
          ],
          "data": "0x00000000000000000000000000000000000000000009ed194db19b238c00000000000000000000000000000000000000000000000009ed30fd7fd6b92037eb39",
          "blockHash": "0x21f11dc42803f592ec4f01011cd283358cbf1e291c811bbee3d1c48aad7b6679",
          "blockNumber": "0x18a998a",
          "transactionHash": "0x8a7c7f3b58cf7e718380aa38c71d63563ae6f73289f6045f0c71dd177eae97d6",
          "transactionIndex": "0xc",
          "logIndex": "0x47",
          "removed": false
        },
        {
          "address": "0xceba9300f2b948710d2653dd7b07f33a8b32118c",
          "topics": [
            "0xddf252ad1be2c89b69c2b068fc378daa952ba7f163c4a11628f55a4df523b3ef",
            "0x0000000000000000000000003cecf21b37ff98ec310dee68c8958f6f9e8d67e3",
            "0x0000000000000000000000009380fa34fd9e4fd14c06305fd7b6199089ed4eb9"
          ],
          "data": "0x00000000000000000000000000000000000000000000000000000000000003e8",
          "blockHash": "0x21f11dc42803f592ec4f01011cd283358cbf1e291c811bbee3d1c48aad7b6679",
          "blockNumber": "0x18a998a",
          "transactionHash": "0x8a7c7f3b58cf7e718380aa38c71d63563ae6f73289f6045f0c71dd177eae97d6",
          "transactionIndex": "0xc",
          "logIndex": "0x48",
          "removed": false
        },
        {
          "address": "0x765de816845861e75a25fca122bb6898b8b1282a",
          "topics": [
            "0xddf252ad1be2c89b69c2b068fc378daa952ba7f163c4a11628f55a4df523b3ef",
            "0x0000000000000000000000000000000000000000000000000000000000000000",
            "0x0000000000000000000000003cecf21b37ff98ec310dee68c8958f6f9e8d67e3"
          ],
          "data": "0x00000000000000000000000000000000000000000000000000038d479a09f85c",
          "blockHash": "0x21f11dc42803f592ec4f01011cd283358cbf1e291c811bbee3d1c48aad7b6679",
          "blockNumber": "0x18a998a",
          "transactionHash": "0x8a7c7f3b58cf7e718380aa38c71d63563ae6f73289f6045f0c71dd177eae97d6",
          "transactionIndex": "0xc",
          "logIndex": "0x49",
          "removed": false
        },
        {
          "address": "0x777a8255ca72412f0d706dc03c9d1987306b4cad",
          "topics": [
            "0xe7b046415cac9de47940c3087e06db13a0e058ccf53ac5f0edd49ebb4c2c3a6f",
            "0xacc988382b66ee5456086643dcfd9a5ca43dd8f428f6ef22503d8b8013bcffd7",
            "0x0000000000000000000000003cecf21b37ff98ec310dee68c8958f6f9e8d67e3",
            "0x000000000000000000000000ceba9300f2b948710d2653dd7b07f33a8b32118c"
          ],
          "data": "0x00000000000000000000000022d9db95e6ae61c104a7b6f6c78d7993b94ec901000000000000000000000000765de816845861e75a25fca122bb6898b8b1282a00000000000000000000000000000000000000000000000000000000000003e800000000000000000000000000000000000000000000000000038d479a09f85c",
          "blockHash": "0x21f11dc42803f592ec4f01011cd283358cbf1e291c811bbee3d1c48aad7b6679",
          "blockNumber": "0x18a998a",
          "transactionHash": "0x8a7c7f3b58cf7e718380aa38c71d63563ae6f73289f6045f0c71dd177eae97d6",
          "transactionIndex": "0xc",
          "logIndex": "0x4a",
          "removed": false
        },
        {
          "address": "0x765de816845861e75a25fca122bb6898b8b1282a",
          "topics": [
            "0x8c5be1e5ebec7d5bd14f71427d1e84f3dd0314c0f7b2291e5b200ac8c7c3b925",
            "0x0000000000000000000000003cecf21b37ff98ec310dee68c8958f6f9e8d67e3",
            "0x000000000000000000000000777a8255ca72412f0d706dc03c9d1987306b4cad"
          ],
          "data": "0x00000000000000000000000000000000000000000000000000038d479a09f85c",
          "blockHash": "0x21f11dc42803f592ec4f01011cd283358cbf1e291c811bbee3d1c48aad7b6679",
          "blockNumber": "0x18a998a",
          "transactionHash": "0x8a7c7f3b58cf7e718380aa38c71d63563ae6f73289f6045f0c71dd177eae97d6",
          "transactionIndex": "0xc",
          "logIndex": "0x4b",
          "removed": false
        },
        {
          "address": "0x22d9db95e6ae61c104a7b6f6c78d7993b94ec901",
          "topics": [
            "0x949f5db193cbfa01f2d443b1c656bfede15497de0d86838cea089bd60c438342",
            "0x89de88b8eb790de26f4649f543cb6893d93635c728ac857f0926e842fb0d298b"
          ],
          "data": "0x000000000000000000000000000000000000000000084595161401484a000000000000000000000000000000000000000000000004427648433a654841426ec3",
          "blockHash": "0x21f11dc42803f592ec4f01011cd283358cbf1e291c811bbee3d1c48aad7b6679",
          "blockNumber": "0x18a998a",
          "transactionHash": "0x8a7c7f3b58cf7e718380aa38c71d63563ae6f73289f6045f0c71dd177eae97d6",
          "transactionIndex": "0xc",
          "logIndex": "0x4c",
          "removed": false
        },
        {
          "address": "0x765de816845861e75a25fca122bb6898b8b1282a",
          "topics": [
            "0x8c5be1e5ebec7d5bd14f71427d1e84f3dd0314c0f7b2291e5b200ac8c7c3b925",
            "0x0000000000000000000000003cecf21b37ff98ec310dee68c8958f6f9e8d67e3",
            "0x000000000000000000000000777a8255ca72412f0d706dc03c9d1987306b4cad"
          ],
          "data": "0x0000000000000000000000000000000000000000000000000000000000000000",
          "blockHash": "0x21f11dc42803f592ec4f01011cd283358cbf1e291c811bbee3d1c48aad7b6679",
          "blockNumber": "0x18a998a",
          "transactionHash": "0x8a7c7f3b58cf7e718380aa38c71d63563ae6f73289f6045f0c71dd177eae97d6",
          "transactionIndex": "0xc",
          "logIndex": "0x4d",
          "removed": false
        },
        {
          "address": "0x765de816845861e75a25fca122bb6898b8b1282a",
          "topics": [
            "0xddf252ad1be2c89b69c2b068fc378daa952ba7f163c4a11628f55a4df523b3ef",
            "0x0000000000000000000000003cecf21b37ff98ec310dee68c8958f6f9e8d67e3",
            "0x000000000000000000000000777a8255ca72412f0d706dc03c9d1987306b4cad"
          ],
          "data": "0x00000000000000000000000000000000000000000000000000038d479a09f85c",
          "blockHash": "0x21f11dc42803f592ec4f01011cd283358cbf1e291c811bbee3d1c48aad7b6679",
          "blockNumber": "0x18a998a",
          "transactionHash": "0x8a7c7f3b58cf7e718380aa38c71d63563ae6f73289f6045f0c71dd177eae97d6",
          "transactionIndex": "0xc",
          "logIndex": "0x4e",
          "removed": false
        },
        {
          "address": "0x765de816845861e75a25fca122bb6898b8b1282a",
          "topics": [
            "0xddf252ad1be2c89b69c2b068fc378daa952ba7f163c4a11628f55a4df523b3ef",
            "0x000000000000000000000000777a8255ca72412f0d706dc03c9d1987306b4cad",
            "0x0000000000000000000000000000000000000000000000000000000000000000"
          ],
          "data": "0x00000000000000000000000000000000000000000000000000038d479a09f85c",
          "blockHash": "0x21f11dc42803f592ec4f01011cd283358cbf1e291c811bbee3d1c48aad7b6679",
          "blockNumber": "0x18a998a",
          "transactionHash": "0x8a7c7f3b58cf7e718380aa38c71d63563ae6f73289f6045f0c71dd177eae97d6",
          "transactionIndex": "0xc",
          "logIndex": "0x4f",
          "removed": false
        },
        {
          "address": "0x456a3d042c0dbd3db53d5489e98dfb038553b0d0",
          "topics": [
            "0xddf252ad1be2c89b69c2b068fc378daa952ba7f163c4a11628f55a4df523b3ef",
            "0x0000000000000000000000000000000000000000000000000000000000000000",
            "0x0000000000000000000000003cecf21b37ff98ec310dee68c8958f6f9e8d67e3"
          ],
          "data": "0x00000000000000000000000000000000000000000000000001cf8e8868624b19",
          "blockHash": "0x21f11dc42803f592ec4f01011cd283358cbf1e291c811bbee3d1c48aad7b6679",
          "blockNumber": "0x18a998a",
          "transactionHash": "0x8a7c7f3b58cf7e718380aa38c71d63563ae6f73289f6045f0c71dd177eae97d6",
          "transactionIndex": "0xc",
          "logIndex": "0x50",
          "removed": false
        },
        {
          "address": "0x777a8255ca72412f0d706dc03c9d1987306b4cad",
          "topics": [
            "0xe7b046415cac9de47940c3087e06db13a0e058ccf53ac5f0edd49ebb4c2c3a6f",
            "0x89de88b8eb790de26f4649f543cb6893d93635c728ac857f0926e842fb0d298b",
            "0x0000000000000000000000003cecf21b37ff98ec310dee68c8958f6f9e8d67e3",
            "0x000000000000000000000000765de816845861e75a25fca122bb6898b8b1282a"
          ],
          "data": "0x00000000000000000000000022d9db95e6ae61c104a7b6f6c78d7993b94ec901000000000000000000000000456a3d042c0dbd3db53d5489e98dfb038553b0d000000000000000000000000000000000000000000000000000038d479a09f85c00000000000000000000000000000000000000000000000001cf8e8868624b19",
          "blockHash": "0x21f11dc42803f592ec4f01011cd283358cbf1e291c811bbee3d1c48aad7b6679",
          "blockNumber": "0x18a998a",
          "transactionHash": "0x8a7c7f3b58cf7e718380aa38c71d63563ae6f73289f6045f0c71dd177eae97d6",
          "transactionIndex": "0xc",
          "logIndex": "0x51",
          "removed": false
        },
        {
          "address": "0x456a3d042c0dbd3db53d5489e98dfb038553b0d0",
          "topics": [
            "0xddf252ad1be2c89b69c2b068fc378daa952ba7f163c4a11628f55a4df523b3ef",
            "0x0000000000000000000000003cecf21b37ff98ec310dee68c8958f6f9e8d67e3",
            "0x0000000000000000000000008e8e5f2eb9b8cd64942777e287982ff986a2c5a1"
          ],
          "data": "0x00000000000000000000000000000000000000000000000001cf8e8868624b19",
          "blockHash": "0x21f11dc42803f592ec4f01011cd283358cbf1e291c811bbee3d1c48aad7b6679",
          "blockNumber": "0x18a998a",
          "transactionHash": "0x8a7c7f3b58cf7e718380aa38c71d63563ae6f73289f6045f0c71dd177eae97d6",
          "transactionIndex": "0xc",
          "logIndex": "0x52",
          "removed": false
        }
      ],
      "logsBloom": "0x00800000000000000000100000000200000000008000000000000000000000000000080000000000000200002000000000000000000000000000000000200000000000002000000000000008000000010000000000000000000000000000000000008000020000000000000000000c00000000000000000000000010002040000000000000200010401000001000000000000000000000000800000000000000020001004000001100000000000000000008000000000000000040000204080002000002000000000000020000000000002800040004000000000000000020000018004080004010000c40000000000000000080000000300000000000000000",
      "type": "0x0",
      "transactionHash": "0x8a7c7f3b58cf7e718380aa38c71d63563ae6f73289f6045f0c71dd177eae97d6",
      "transactionIndex": "0xc",
      "blockHash": "0x21f11dc42803f592ec4f01011cd283358cbf1e291c811bbee3d1c48aad7b6679",
      "blockNumber": "0x18a998a",
      "gasUsed": "0x85f96",
      "effectiveGasPrice": "0x2540be400",
      "from": "0x8e8e5f2eb9b8cd64942777e287982ff986a2c5a1",
      "to": "0x3cecf21b37ff98ec310dee68c8958f6f9e8d67e3",
      "contractAddress": null
    },
    {
      "status": "0x1",
      "cumulativeGasUsed": "0x4333cc",
      "logs": [
        {
          "address": "0xceba9300f2b948710d2653dd7b07f33a8b32118c",
          "topics": [
            "0xddf252ad1be2c89b69c2b068fc378daa952ba7f163c4a11628f55a4df523b3ef",
            "0x0000000000000000000000008e8e5f2eb9b8cd64942777e287982ff986a2c5a1",
            "0x0000000000000000000000003cecf21b37ff98ec310dee68c8958f6f9e8d67e3"
          ],
          "data": "0x00000000000000000000000000000000000000000000000000000000000003d2",
          "blockHash": "0x21f11dc42803f592ec4f01011cd283358cbf1e291c811bbee3d1c48aad7b6679",
          "blockNumber": "0x18a998a",
          "transactionHash": "0xf284c670f194b31c3b9141a23f4bea25f2ff37a98613e9803a9a29ae6daed479",
          "transactionIndex": "0xd",
          "logIndex": "0x53",
          "removed": false
        },
        {
          "address": "0xceba9300f2b948710d2653dd7b07f33a8b32118c",
          "topics": [
            "0x8c5be1e5ebec7d5bd14f71427d1e84f3dd0314c0f7b2291e5b200ac8c7c3b925",
            "0x0000000000000000000000003cecf21b37ff98ec310dee68c8958f6f9e8d67e3",
            "0x000000000000000000000000777a8255ca72412f0d706dc03c9d1987306b4cad"
          ],
          "data": "0x00000000000000000000000000000000000000000000000000000000000003d2",
          "blockHash": "0x21f11dc42803f592ec4f01011cd283358cbf1e291c811bbee3d1c48aad7b6679",
          "blockNumber": "0x18a998a",
          "transactionHash": "0xf284c670f194b31c3b9141a23f4bea25f2ff37a98613e9803a9a29ae6daed479",
          "transactionIndex": "0xd",
          "logIndex": "0x54",
          "removed": false
        },
        {
          "address": "0xceba9300f2b948710d2653dd7b07f33a8b32118c",
          "topics": [
            "0xddf252ad1be2c89b69c2b068fc378daa952ba7f163c4a11628f55a4df523b3ef",
            "0x0000000000000000000000003cecf21b37ff98ec310dee68c8958f6f9e8d67e3",
            "0x0000000000000000000000009380fa34fd9e4fd14c06305fd7b6199089ed4eb9"
          ],
          "data": "0x00000000000000000000000000000000000000000000000000000000000003d2",
          "blockHash": "0x21f11dc42803f592ec4f01011cd283358cbf1e291c811bbee3d1c48aad7b6679",
          "blockNumber": "0x18a998a",
          "transactionHash": "0xf284c670f194b31c3b9141a23f4bea25f2ff37a98613e9803a9a29ae6daed479",
          "transactionIndex": "0xd",
          "logIndex": "0x55",
          "removed": false
        },
        {
          "address": "0x765de816845861e75a25fca122bb6898b8b1282a",
          "topics": [
            "0xddf252ad1be2c89b69c2b068fc378daa952ba7f163c4a11628f55a4df523b3ef",
            "0x0000000000000000000000000000000000000000000000000000000000000000",
            "0x0000000000000000000000003cecf21b37ff98ec310dee68c8958f6f9e8d67e3"
          ],
          "data": "0x0000000000000000000000000000000000000000000000000003794689d99f71",
          "blockHash": "0x21f11dc42803f592ec4f01011cd283358cbf1e291c811bbee3d1c48aad7b6679",
          "blockNumber": "0x18a998a",
          "transactionHash": "0xf284c670f194b31c3b9141a23f4bea25f2ff37a98613e9803a9a29ae6daed479",
          "transactionIndex": "0xd",
          "logIndex": "0x56",
          "removed": false
        },
        {
          "address": "0x777a8255ca72412f0d706dc03c9d1987306b4cad",
          "topics": [
            "0xe7b046415cac9de47940c3087e06db13a0e058ccf53ac5f0edd49ebb4c2c3a6f",
            "0xacc988382b66ee5456086643dcfd9a5ca43dd8f428f6ef22503d8b8013bcffd7",
            "0x0000000000000000000000003cecf21b37ff98ec310dee68c8958f6f9e8d67e3",
            "0x000000000000000000000000ceba9300f2b948710d2653dd7b07f33a8b32118c"
          ],
          "data": "0x00000000000000000000000022d9db95e6ae61c104a7b6f6c78d7993b94ec901000000000000000000000000765de816845861e75a25fca122bb6898b8b1282a00000000000000000000000000000000000000000000000000000000000003d20000000000000000000000000000000000000000000000000003794689d99f71",
          "blockHash": "0x21f11dc42803f592ec4f01011cd283358cbf1e291c811bbee3d1c48aad7b6679",
          "blockNumber": "0x18a998a",
          "transactionHash": "0xf284c670f194b31c3b9141a23f4bea25f2ff37a98613e9803a9a29ae6daed479",
          "transactionIndex": "0xd",
          "logIndex": "0x57",
          "removed": false
        },
        {
          "address": "0x765de816845861e75a25fca122bb6898b8b1282a",
          "topics": [
            "0x8c5be1e5ebec7d5bd14f71427d1e84f3dd0314c0f7b2291e5b200ac8c7c3b925",
            "0x0000000000000000000000003cecf21b37ff98ec310dee68c8958f6f9e8d67e3",
            "0x000000000000000000000000777a8255ca72412f0d706dc03c9d1987306b4cad"
          ],
          "data": "0x0000000000000000000000000000000000000000000000000003794689d99f71",
          "blockHash": "0x21f11dc42803f592ec4f01011cd283358cbf1e291c811bbee3d1c48aad7b6679",
          "blockNumber": "0x18a998a",
          "transactionHash": "0xf284c670f194b31c3b9141a23f4bea25f2ff37a98613e9803a9a29ae6daed479",
          "transactionIndex": "0xd",
          "logIndex": "0x58",
          "removed": false
        },
        {
          "address": "0x22d9db95e6ae61c104a7b6f6c78d7993b94ec901",
          "topics": [
            "0x949f5db193cbfa01f2d443b1c656bfede15497de0d86838cea089bd60c438342",
            "0x0d739efbfc30f303e8d1976c213b4040850d1af40f174f4169b846f6fd3d2f20"
          ],
          "data": "0x00000000000000000000000000000000000000000009ed194db19b238c00000000000000000000000000000000000000000000000009ed30fd7fd6b92037eb39",
          "blockHash": "0x21f11dc42803f592ec4f01011cd283358cbf1e291c811bbee3d1c48aad7b6679",
          "blockNumber": "0x18a998a",
          "transactionHash": "0xf284c670f194b31c3b9141a23f4bea25f2ff37a98613e9803a9a29ae6daed479",
          "transactionIndex": "0xd",
          "logIndex": "0x59",
          "removed": false
        },
        {
          "address": "0x765de816845861e75a25fca122bb6898b8b1282a",
          "topics": [
            "0x8c5be1e5ebec7d5bd14f71427d1e84f3dd0314c0f7b2291e5b200ac8c7c3b925",
            "0x0000000000000000000000003cecf21b37ff98ec310dee68c8958f6f9e8d67e3",
            "0x000000000000000000000000777a8255ca72412f0d706dc03c9d1987306b4cad"
          ],
          "data": "0x0000000000000000000000000000000000000000000000000000000000000000",
          "blockHash": "0x21f11dc42803f592ec4f01011cd283358cbf1e291c811bbee3d1c48aad7b6679",
          "blockNumber": "0x18a998a",
          "transactionHash": "0xf284c670f194b31c3b9141a23f4bea25f2ff37a98613e9803a9a29ae6daed479",
          "transactionIndex": "0xd",
          "logIndex": "0x5a",
          "removed": false
        },
        {
          "address": "0x765de816845861e75a25fca122bb6898b8b1282a",
          "topics": [
            "0xddf252ad1be2c89b69c2b068fc378daa952ba7f163c4a11628f55a4df523b3ef",
            "0x0000000000000000000000003cecf21b37ff98ec310dee68c8958f6f9e8d67e3",
            "0x000000000000000000000000777a8255ca72412f0d706dc03c9d1987306b4cad"
          ],
          "data": "0x0000000000000000000000000000000000000000000000000003794689d99f71",
          "blockHash": "0x21f11dc42803f592ec4f01011cd283358cbf1e291c811bbee3d1c48aad7b6679",
          "blockNumber": "0x18a998a",
          "transactionHash": "0xf284c670f194b31c3b9141a23f4bea25f2ff37a98613e9803a9a29ae6daed479",
          "transactionIndex": "0xd",
          "logIndex": "0x5b",
          "removed": false
        },
        {
          "address": "0x765de816845861e75a25fca122bb6898b8b1282a",
          "topics": [
            "0xddf252ad1be2c89b69c2b068fc378daa952ba7f163c4a11628f55a4df523b3ef",
            "0x000000000000000000000000777a8255ca72412f0d706dc03c9d1987306b4cad",
            "0x0000000000000000000000000000000000000000000000000000000000000000"
          ],
          "data": "0x0000000000000000000000000000000000000000000000000003794689d99f71",
          "blockHash": "0x21f11dc42803f592ec4f01011cd283358cbf1e291c811bbee3d1c48aad7b6679",
          "blockNumber": "0x18a998a",
          "transactionHash": "0xf284c670f194b31c3b9141a23f4bea25f2ff37a98613e9803a9a29ae6daed479",
          "transactionIndex": "0xd",
          "logIndex": "0x5c",
          "removed": false
        },
        {
          "address": "0xeb466342c4d449bc9f53a865d5cb90586f405215",
          "topics": [
            "0xddf252ad1be2c89b69c2b068fc378daa952ba7f163c4a11628f55a4df523b3ef",
            "0x0000000000000000000000009380fa34fd9e4fd14c06305fd7b6199089ed4eb9",
            "0x0000000000000000000000003cecf21b37ff98ec310dee68c8958f6f9e8d67e3"
          ],
          "data": "0x00000000000000000000000000000000000000000000000000000000000003d1",
          "blockHash": "0x21f11dc42803f592ec4f01011cd283358cbf1e291c811bbee3d1c48aad7b6679",
          "blockNumber": "0x18a998a",
          "transactionHash": "0xf284c670f194b31c3b9141a23f4bea25f2ff37a98613e9803a9a29ae6daed479",
          "transactionIndex": "0xd",
          "logIndex": "0x5d",
          "removed": false
        },
        {
          "address": "0x9380fa34fd9e4fd14c06305fd7b6199089ed4eb9",
          "topics": [
            "0xc171b15fb47a5beb3e11b1951d4518544f699edd6acd893d8695c91703922b60",
            "0x000000000000000000000000777a8255ca72412f0d706dc03c9d1987306b4cad",
            "0x0000000000000000000000003cecf21b37ff98ec310dee68c8958f6f9e8d67e3"
          ],
          "data": "0x00000000000000000000000000000000000000000000000000000000000003d1000000000000000000000000eb466342c4d449bc9f53a865d5cb90586f405215",
          "blockHash": "0x21f11dc42803f592ec4f01011cd283358cbf1e291c811bbee3d1c48aad7b6679",
          "blockNumber": "0x18a998a",
          "transactionHash": "0xf284c670f194b31c3b9141a23f4bea25f2ff37a98613e9803a9a29ae6daed479",
          "transactionIndex": "0xd",
          "logIndex": "0x5e",
          "removed": false
        },
        {
          "address": "0x777a8255ca72412f0d706dc03c9d1987306b4cad",
          "topics": [
            "0xe7b046415cac9de47940c3087e06db13a0e058ccf53ac5f0edd49ebb4c2c3a6f",
            "0x0d739efbfc30f303e8d1976c213b4040850d1af40f174f4169b846f6fd3d2f20",
            "0x0000000000000000000000003cecf21b37ff98ec310dee68c8958f6f9e8d67e3",
            "0x000000000000000000000000765de816845861e75a25fca122bb6898b8b1282a"
          ],
          "data": "0x00000000000000000000000022d9db95e6ae61c104a7b6f6c78d7993b94ec901000000000000000000000000eb466342c4d449bc9f53a865d5cb90586f4052150000000000000000000000000000000000000000000000000003794689d99f7100000000000000000000000000000000000000000000000000000000000003d1",
          "blockHash": "0x21f11dc42803f592ec4f01011cd283358cbf1e291c811bbee3d1c48aad7b6679",
          "blockNumber": "0x18a998a",
          "transactionHash": "0xf284c670f194b31c3b9141a23f4bea25f2ff37a98613e9803a9a29ae6daed479",
          "transactionIndex": "0xd",
          "logIndex": "0x5f",
          "removed": false
        },
        {
          "address": "0xeb466342c4d449bc9f53a865d5cb90586f405215",
          "topics": [
            "0x8c5be1e5ebec7d5bd14f71427d1e84f3dd0314c0f7b2291e5b200ac8c7c3b925",
            "0x0000000000000000000000003cecf21b37ff98ec310dee68c8958f6f9e8d67e3",
            "0x000000000000000000000000777a8255ca72412f0d706dc03c9d1987306b4cad"
          ],
          "data": "0x00000000000000000000000000000000000000000000000000000000000003d1",
          "blockHash": "0x21f11dc42803f592ec4f01011cd283358cbf1e291c811bbee3d1c48aad7b6679",
          "blockNumber": "0x18a998a",
          "transactionHash": "0xf284c670f194b31c3b9141a23f4bea25f2ff37a98613e9803a9a29ae6daed479",
          "transactionIndex": "0xd",
          "logIndex": "0x60",
          "removed": false
        },
        {
          "address": "0x22d9db95e6ae61c104a7b6f6c78d7993b94ec901",
          "topics": [
            "0x949f5db193cbfa01f2d443b1c656bfede15497de0d86838cea089bd60c438342",
            "0xf418803158d881fda22694067bf6479476cec22ecfeeca2f6a65a6259bdbb9c0"
          ],
          "data": "0x000000000000000000000000000000000000000000017d2a320dd74555000000000000000000000000000000000000000000000000019d1e1a458cc451f7e19e",
          "blockHash": "0x21f11dc42803f592ec4f01011cd283358cbf1e291c811bbee3d1c48aad7b6679",
          "blockNumber": "0x18a998a",
          "transactionHash": "0xf284c670f194b31c3b9141a23f4bea25f2ff37a98613e9803a9a29ae6daed479",
          "transactionIndex": "0xd",
          "logIndex": "0x61",
          "removed": false
        },
        {
          "address": "0xeb466342c4d449bc9f53a865d5cb90586f405215",
          "topics": [
            "0x8c5be1e5ebec7d5bd14f71427d1e84f3dd0314c0f7b2291e5b200ac8c7c3b925",
            "0x0000000000000000000000003cecf21b37ff98ec310dee68c8958f6f9e8d67e3",
            "0x000000000000000000000000777a8255ca72412f0d706dc03c9d1987306b4cad"
          ],
          "data": "0x0000000000000000000000000000000000000000000000000000000000000000",
          "blockHash": "0x21f11dc42803f592ec4f01011cd283358cbf1e291c811bbee3d1c48aad7b6679",
          "blockNumber": "0x18a998a",
          "transactionHash": "0xf284c670f194b31c3b9141a23f4bea25f2ff37a98613e9803a9a29ae6daed479",
          "transactionIndex": "0xd",
          "logIndex": "0x62",
          "removed": false
        },
        {
          "address": "0xeb466342c4d449bc9f53a865d5cb90586f405215",
          "topics": [
            "0xddf252ad1be2c89b69c2b068fc378daa952ba7f163c4a11628f55a4df523b3ef",
            "0x0000000000000000000000003cecf21b37ff98ec310dee68c8958f6f9e8d67e3",
            "0x0000000000000000000000009380fa34fd9e4fd14c06305fd7b6199089ed4eb9"
          ],
          "data": "0x00000000000000000000000000000000000000000000000000000000000003d1",
          "blockHash": "0x21f11dc42803f592ec4f01011cd283358cbf1e291c811bbee3d1c48aad7b6679",
          "blockNumber": "0x18a998a",
          "transactionHash": "0xf284c670f194b31c3b9141a23f4bea25f2ff37a98613e9803a9a29ae6daed479",
          "transactionIndex": "0xd",
          "logIndex": "0x63",
          "removed": false
        },
        {
          "address": "0xd8763cba276a3738e6de85b4b3bf5fded6d6ca73",
          "topics": [
            "0xddf252ad1be2c89b69c2b068fc378daa952ba7f163c4a11628f55a4df523b3ef",
            "0x0000000000000000000000000000000000000000000000000000000000000000",
            "0x0000000000000000000000003cecf21b37ff98ec310dee68c8958f6f9e8d67e3"
          ],
          "data": "0x000000000000000000000000000000000000000000000000000331cca3bc7c26",
          "blockHash": "0x21f11dc42803f592ec4f01011cd283358cbf1e291c811bbee3d1c48aad7b6679",
          "blockNumber": "0x18a998a",
          "transactionHash": "0xf284c670f194b31c3b9141a23f4bea25f2ff37a98613e9803a9a29ae6daed479",
          "transactionIndex": "0xd",
          "logIndex": "0x64",
          "removed": false
        },
        {
          "address": "0x777a8255ca72412f0d706dc03c9d1987306b4cad",
          "topics": [
            "0xe7b046415cac9de47940c3087e06db13a0e058ccf53ac5f0edd49ebb4c2c3a6f",
            "0xf418803158d881fda22694067bf6479476cec22ecfeeca2f6a65a6259bdbb9c0",
            "0x0000000000000000000000003cecf21b37ff98ec310dee68c8958f6f9e8d67e3",
            "0x000000000000000000000000eb466342c4d449bc9f53a865d5cb90586f405215"
          ],
          "data": "0x00000000000000000000000022d9db95e6ae61c104a7b6f6c78d7993b94ec901000000000000000000000000d8763cba276a3738e6de85b4b3bf5fded6d6ca7300000000000000000000000000000000000000000000000000000000000003d1000000000000000000000000000000000000000000000000000331cca3bc7c26",
          "blockHash": "0x21f11dc42803f592ec4f01011cd283358cbf1e291c811bbee3d1c48aad7b6679",
          "blockNumber": "0x18a998a",
          "transactionHash": "0xf284c670f194b31c3b9141a23f4bea25f2ff37a98613e9803a9a29ae6daed479",
          "transactionIndex": "0xd",
          "logIndex": "0x65",
          "removed": false
        },
        {
          "address": "0xd8763cba276a3738e6de85b4b3bf5fded6d6ca73",
          "topics": [
            "0x8c5be1e5ebec7d5bd14f71427d1e84f3dd0314c0f7b2291e5b200ac8c7c3b925",
            "0x0000000000000000000000003cecf21b37ff98ec310dee68c8958f6f9e8d67e3",
            "0x000000000000000000000000777a8255ca72412f0d706dc03c9d1987306b4cad"
          ],
          "data": "0x000000000000000000000000000000000000000000000000000331cca3bc7c26",
          "blockHash": "0x21f11dc42803f592ec4f01011cd283358cbf1e291c811bbee3d1c48aad7b6679",
          "blockNumber": "0x18a998a",
          "transactionHash": "0xf284c670f194b31c3b9141a23f4bea25f2ff37a98613e9803a9a29ae6daed479",
          "transactionIndex": "0xd",
          "logIndex": "0x66",
          "removed": false
        },
        {
          "address": "0x22d9db95e6ae61c104a7b6f6c78d7993b94ec901",
          "topics": [
            "0x949f5db193cbfa01f2d443b1c656bfede15497de0d86838cea089bd60c438342",
            "0xfca6d94b46122eb9a4b86cf9d3e1e856fea8a826d0fc26c5baf17c43fbaf0f48"
          ],
          "data": "0x00000000000000000000000000000000000000000009ed194db19b238c00000000000000000000000000000000000000000000000009f1c73a2a1c4fc962883b",
          "blockHash": "0x21f11dc42803f592ec4f01011cd283358cbf1e291c811bbee3d1c48aad7b6679",
          "blockNumber": "0x18a998a",
          "transactionHash": "0xf284c670f194b31c3b9141a23f4bea25f2ff37a98613e9803a9a29ae6daed479",
          "transactionIndex": "0xd",
          "logIndex": "0x67",
          "removed": false
        },
        {
          "address": "0xd8763cba276a3738e6de85b4b3bf5fded6d6ca73",
          "topics": [
            "0x8c5be1e5ebec7d5bd14f71427d1e84f3dd0314c0f7b2291e5b200ac8c7c3b925",
            "0x0000000000000000000000003cecf21b37ff98ec310dee68c8958f6f9e8d67e3",
            "0x000000000000000000000000777a8255ca72412f0d706dc03c9d1987306b4cad"
          ],
          "data": "0x0000000000000000000000000000000000000000000000000000000000000000",
          "blockHash": "0x21f11dc42803f592ec4f01011cd283358cbf1e291c811bbee3d1c48aad7b6679",
          "blockNumber": "0x18a998a",
          "transactionHash": "0xf284c670f194b31c3b9141a23f4bea25f2ff37a98613e9803a9a29ae6daed479",
          "transactionIndex": "0xd",
          "logIndex": "0x68",
          "removed": false
        },
        {
          "address": "0xd8763cba276a3738e6de85b4b3bf5fded6d6ca73",
          "topics": [
            "0xddf252ad1be2c89b69c2b068fc378daa952ba7f163c4a11628f55a4df523b3ef",
            "0x0000000000000000000000003cecf21b37ff98ec310dee68c8958f6f9e8d67e3",
            "0x000000000000000000000000777a8255ca72412f0d706dc03c9d1987306b4cad"
          ],
          "data": "0x000000000000000000000000000000000000000000000000000331cca3bc7c26",
          "blockHash": "0x21f11dc42803f592ec4f01011cd283358cbf1e291c811bbee3d1c48aad7b6679",
          "blockNumber": "0x18a998a",
          "transactionHash": "0xf284c670f194b31c3b9141a23f4bea25f2ff37a98613e9803a9a29ae6daed479",
          "transactionIndex": "0xd",
          "logIndex": "0x69",
          "removed": false
        },
        {
          "address": "0xd8763cba276a3738e6de85b4b3bf5fded6d6ca73",
          "topics": [
            "0xddf252ad1be2c89b69c2b068fc378daa952ba7f163c4a11628f55a4df523b3ef",
            "0x000000000000000000000000777a8255ca72412f0d706dc03c9d1987306b4cad",
            "0x0000000000000000000000000000000000000000000000000000000000000000"
          ],
          "data": "0x000000000000000000000000000000000000000000000000000331cca3bc7c26",
          "blockHash": "0x21f11dc42803f592ec4f01011cd283358cbf1e291c811bbee3d1c48aad7b6679",
          "blockNumber": "0x18a998a",
          "transactionHash": "0xf284c670f194b31c3b9141a23f4bea25f2ff37a98613e9803a9a29ae6daed479",
          "transactionIndex": "0xd",
          "logIndex": "0x6a",
          "removed": false
        },
        {
          "address": "0x061cc5a2c863e0c1cb404006d559db18a34c762d",
          "topics": [
            "0xddf252ad1be2c89b69c2b068fc378daa952ba7f163c4a11628f55a4df523b3ef",
            "0x0000000000000000000000009380fa34fd9e4fd14c06305fd7b6199089ed4eb9",
            "0x0000000000000000000000003cecf21b37ff98ec310dee68c8958f6f9e8d67e3"
          ],
          "data": "0x0000000000000000000000000000000000000000000000000000000000000384",
          "blockHash": "0x21f11dc42803f592ec4f01011cd283358cbf1e291c811bbee3d1c48aad7b6679",
          "blockNumber": "0x18a998a",
          "transactionHash": "0xf284c670f194b31c3b9141a23f4bea25f2ff37a98613e9803a9a29ae6daed479",
          "transactionIndex": "0xd",
          "logIndex": "0x6b",
          "removed": false
        },
        {
          "address": "0x9380fa34fd9e4fd14c06305fd7b6199089ed4eb9",
          "topics": [
            "0xc171b15fb47a5beb3e11b1951d4518544f699edd6acd893d8695c91703922b60",
            "0x000000000000000000000000777a8255ca72412f0d706dc03c9d1987306b4cad",
            "0x0000000000000000000000003cecf21b37ff98ec310dee68c8958f6f9e8d67e3"
          ],
          "data": "0x0000000000000000000000000000000000000000000000000000000000000384000000000000000000000000061cc5a2c863e0c1cb404006d559db18a34c762d",
          "blockHash": "0x21f11dc42803f592ec4f01011cd283358cbf1e291c811bbee3d1c48aad7b6679",
          "blockNumber": "0x18a998a",
          "transactionHash": "0xf284c670f194b31c3b9141a23f4bea25f2ff37a98613e9803a9a29ae6daed479",
          "transactionIndex": "0xd",
          "logIndex": "0x6c",
          "removed": false
        },
        {
          "address": "0x777a8255ca72412f0d706dc03c9d1987306b4cad",
          "topics": [
            "0xe7b046415cac9de47940c3087e06db13a0e058ccf53ac5f0edd49ebb4c2c3a6f",
            "0xfca6d94b46122eb9a4b86cf9d3e1e856fea8a826d0fc26c5baf17c43fbaf0f48",
            "0x0000000000000000000000003cecf21b37ff98ec310dee68c8958f6f9e8d67e3",
            "0x000000000000000000000000d8763cba276a3738e6de85b4b3bf5fded6d6ca73"
          ],
          "data": "0x00000000000000000000000022d9db95e6ae61c104a7b6f6c78d7993b94ec901000000000000000000000000061cc5a2c863e0c1cb404006d559db18a34c762d000000000000000000000000000000000000000000000000000331cca3bc7c260000000000000000000000000000000000000000000000000000000000000384",
          "blockHash": "0x21f11dc42803f592ec4f01011cd283358cbf1e291c811bbee3d1c48aad7b6679",
          "blockNumber": "0x18a998a",
          "transactionHash": "0xf284c670f194b31c3b9141a23f4bea25f2ff37a98613e9803a9a29ae6daed479",
          "transactionIndex": "0xd",
          "logIndex": "0x6d",
          "removed": false
        },
        {
          "address": "0x061cc5a2c863e0c1cb404006d559db18a34c762d",
          "topics": [
            "0xddf252ad1be2c89b69c2b068fc378daa952ba7f163c4a11628f55a4df523b3ef",
            "0x0000000000000000000000003cecf21b37ff98ec310dee68c8958f6f9e8d67e3",
            "0x0000000000000000000000008e8e5f2eb9b8cd64942777e287982ff986a2c5a1"
          ],
          "data": "0x0000000000000000000000000000000000000000000000000000000000000384",
          "blockHash": "0x21f11dc42803f592ec4f01011cd283358cbf1e291c811bbee3d1c48aad7b6679",
          "blockNumber": "0x18a998a",
          "transactionHash": "0xf284c670f194b31c3b9141a23f4bea25f2ff37a98613e9803a9a29ae6daed479",
          "transactionIndex": "0xd",
          "logIndex": "0x6e",
          "removed": false
        }
      ],
      "logsBloom": "0x408000000001000102001000000002000000000080000000000000000000000000000a0000000000000220002000000100000000000000000000000000200010020000002000000200000048000000110040802000100000000400000000000000008080020000000000000000000c00000800000000000000000110002040000008000000200010401000001000000000000000000000000804000000020000020001000200000100000000400000000008000000000000000040200004080002000002020000000000020001002000002800040000000000000100000020000018000080004010000c40000000000000000080000000100000000000000000",
      "type": "0x0",
      "transactionHash": "0xf284c670f194b31c3b9141a23f4bea25f2ff37a98613e9803a9a29ae6daed479",
      "transactionIndex": "0xd",
      "blockHash": "0x21f11dc42803f592ec4f01011cd283358cbf1e291c811bbee3d1c48aad7b6679",
      "blockNumber": "0x18a998a",
      "gasUsed": "0xe6720",
      "effectiveGasPrice": "0x2540be400",
      "from": "0x8e8e5f2eb9b8cd64942777e287982ff986a2c5a1",
      "to": "0x3cecf21b37ff98ec310dee68c8958f6f9e8d67e3",
      "contractAddress": null
    }
  ],
  "libraries": [],
  "pending": [],
  "returns": {},
  "timestamp": 1716973528,
  "chain": 42220,
  "commit": "43650ae"
}