{
  "transactions": [
    {
      "hash": "0xab27e9991c2637fc976e41f1485100988a54814f3c05911a87fafdbf0f901a89",
      "transactionType": "CALL",
      "contractName": null,
      "contractAddress": "0xceba9300f2b948710d2653dd7b07f33a8b32118c",
      "function": "approve(address,uint256)",
      "arguments": [
        "0xBE729350F8CdFC19DB6866e8579841188eE57f67",
        "2000"
      ],
      "transaction": {
        "from": "0x8e8e5f2eb9b8cd64942777e287982ff986a2c5a1",
        "to": "0xceba9300f2b948710d2653dd7b07f33a8b32118c",
        "gas": "0x13ca2",
        "value": "0x0",
        "input": "0x095ea7b3000000000000000000000000be729350f8cdfc19db6866e8579841188ee57f6700000000000000000000000000000000000000000000000000000000000007d0",
        "nonce": "0x2d",
        "chainId": "0xa4ec"
      },
      "additionalContracts": [],
      "isFixedGasLimit": false
    },
    {
      "hash": "0x06e15bfde745363546fb6224473d5bb6bc8fd9a767ca589f509bb5ee9d07e2d9",
      "transactionType": "CALL",
      "contractName": null,
      "contractAddress": "0xbe729350f8cdfc19db6866e8579841188ee57f67",
      "function": "swapExactTokensForTokens(uint256,uint256,(address,bytes32,address,address)[])",
      "arguments": [
        "1000",
        "0",
        "[(0x22d9db95E6Ae61c104A7B6F6C78D7993B94ec901, 0xacc988382b66ee5456086643dcfd9a5ca43dd8f428f6ef22503d8b8013bcffd7, 0xcebA9300f2b948710d2653dD7B07f33A8B32118C, 0x765DE816845861e75A25fCA122bb6898B8B1282a), (0x22d9db95E6Ae61c104A7B6F6C78D7993B94ec901, 0x89de88b8eb790de26f4649f543cb6893d93635c728ac857f0926e842fb0d298b, 0x765DE816845861e75A25fCA122bb6898B8B1282a, 0x456a3D042C0DbD3db53D5489e98dFb038553B0d0)]"
      ],
      "transaction": {
        "from": "0x8e8e5f2eb9b8cd64942777e287982ff986a2c5a1",
        "to": "0xbe729350f8cdfc19db6866e8579841188ee57f67",
        "gas": "0xa9229",
        "value": "0x0",
        "input": "0x723d40f700000000000000000000000000000000000000000000000000000000000003e800000000000000000000000000000000000000000000000000000000000000000000000000000000000000000000000000000000000000000000000000000060000000000000000000000000000000000000000000000000000000000000000200000000000000000000000022d9db95e6ae61c104a7b6f6c78d7993b94ec901acc988382b66ee5456086643dcfd9a5ca43dd8f428f6ef22503d8b8013bcffd7000000000000000000000000ceba9300f2b948710d2653dd7b07f33a8b32118c000000000000000000000000765de816845861e75a25fca122bb6898b8b1282a00000000000000000000000022d9db95e6ae61c104a7b6f6c78d7993b94ec90189de88b8eb790de26f4649f543cb6893d93635c728ac857f0926e842fb0d298b000000000000000000000000765de816845861e75a25fca122bb6898b8b1282a000000000000000000000000456a3d042c0dbd3db53d5489e98dfb038553b0d0",
        "nonce": "0x2e",
        "chainId": "0xa4ec"
      },
      "additionalContracts": [],
      "isFixedGasLimit": false
    },
    {
      "hash": "0x105057c33b90dcc3da37609e56bd0d1295d4a29016ec8c6f3da058eb192d7fbe",
      "transactionType": "CALL",
      "contractName": null,
      "contractAddress": "0xbe729350f8cdfc19db6866e8579841188ee57f67",
      "function": "swapTokensForExactTokens(uint256,uint256,(address,bytes32,address,address)[])",
      "arguments": [
        "900",
        "1000",
        "[(0x22d9db95E6Ae61c104A7B6F6C78D7993B94ec901, 0xacc988382b66ee5456086643dcfd9a5ca43dd8f428f6ef22503d8b8013bcffd7, 0xcebA9300f2b948710d2653dD7B07f33A8B32118C, 0x765DE816845861e75A25fCA122bb6898B8B1282a), (0x22d9db95E6Ae61c104A7B6F6C78D7993B94ec901, 0x0d739efbfc30f303e8d1976c213b4040850d1af40f174f4169b846f6fd3d2f20, 0x765DE816845861e75A25fCA122bb6898B8B1282a, 0xEB466342C4d449BC9f53A865D5Cb90586f405215), (0x22d9db95E6Ae61c104A7B6F6C78D7993B94ec901, 0xf418803158d881fda22694067bf6479476cec22ecfeeca2f6a65a6259bdbb9c0, 0xEB466342C4d449BC9f53A865D5Cb90586f405215, 0xD8763CBa276a3738E6DE85b4b3bF5FDed6D6cA73), (0x22d9db95E6Ae61c104A7B6F6C78D7993B94ec901, 0xfca6d94b46122eb9a4b86cf9d3e1e856fea8a826d0fc26c5baf17c43fbaf0f48, 0xD8763CBa276a3738E6DE85b4b3bF5FDed6D6cA73, 0x061cc5a2C863E0C1Cb404006D559dB18A34C762d)]"
      ],
      "transaction": {
        "from": "0x8e8e5f2eb9b8cd64942777e287982ff986a2c5a1",
        "to": "0xbe729350f8cdfc19db6866e8579841188ee57f67",
        "gas": "0x127cf8",
        "value": "0x0",
        "input": "0xd9b67a31000000000000000000000000000000000000000000000000000000000000038400000000000000000000000000000000000000000000000000000000000003e80000000000000000000000000000000000000000000000000000000000000060000000000000000000000000000000000000000000000000000000000000000400000000000000000000000022d9db95e6ae61c104a7b6f6c78d7993b94ec901acc988382b66ee5456086643dcfd9a5ca43dd8f428f6ef22503d8b8013bcffd7000000000000000000000000ceba9300f2b948710d2653dd7b07f33a8b32118c000000000000000000000000765de816845861e75a25fca122bb6898b8b1282a00000000000000000000000022d9db95e6ae61c104a7b6f6c78d7993b94ec9010d739efbfc30f303e8d1976c213b4040850d1af40f174f4169b846f6fd3d2f20000000000000000000000000765de816845861e75a25fca122bb6898b8b1282a000000000000000000000000eb466342c4d449bc9f53a865d5cb90586f40521500000000000000000000000022d9db95e6ae61c104a7b6f6c78d7993b94ec901f418803158d881fda22694067bf6479476cec22ecfeeca2f6a65a6259bdbb9c0000000000000000000000000eb466342c4d449bc9f53a865d5cb90586f405215000000000000000000000000d8763cba276a3738e6de85b4b3bf5fded6d6ca7300000000000000000000000022d9db95e6ae61c104a7b6f6c78d7993b94ec901fca6d94b46122eb9a4b86cf9d3e1e856fea8a826d0fc26c5baf17c43fbaf0f48000000000000000000000000d8763cba276a3738e6de85b4b3bf5fded6d6ca73000000000000000000000000061cc5a2c863e0c1cb404006d559db18a34c762d",
        "nonce": "0x2f",
        "chainId": "0xa4ec"
      },
      "additionalContracts": [],
      "isFixedGasLimit": false
    }
  ],
  "receipts": [
    {
      "status": "0x1",
      "cumulativeGasUsed": "0x37cc0",
      "logs": [
        {
          "address": "0xceba9300f2b948710d2653dd7b07f33a8b32118c",
          "topics": [
            "0x8c5be1e5ebec7d5bd14f71427d1e84f3dd0314c0f7b2291e5b200ac8c7c3b925",
            "0x0000000000000000000000008e8e5f2eb9b8cd64942777e287982ff986a2c5a1",
            "0x000000000000000000000000be729350f8cdfc19db6866e8579841188ee57f67"
          ],
          "data": "0x00000000000000000000000000000000000000000000000000000000000007d0",
          "blockHash": "0x716eb04dd05bdd93e661bcd50deed05d13ce9e28b00791a22e718e5b260e716a",
          "blockNumber": "0x18a9d35",
          "transactionHash": "0xab27e9991c2637fc976e41f1485100988a54814f3c05911a87fafdbf0f901a89",
          "transactionIndex": "0x2",
          "logIndex": "0x6",
          "removed": false
        }
      ],
      "logsBloom": "0x00001000000000000000100000000200000000000000000000000000000000000000000000000000000000000000000000000000000000000000000000200000000000000000000000000000000000000000000000000000000000000000000000000000000000000000000000000000000000000000000000000000000040000000000000000000000000000000000000000000000000000000000000000000020000000000000000000000000000000000000000000000000000000000800000000000000000000000020000000000000000000000000004000000000000000010000000000000000800000000000000000080000000000000000000000000",
      "type": "0x0",
      "transactionHash": "0xab27e9991c2637fc976e41f1485100988a54814f3c05911a87fafdbf0f901a89",
      "transactionIndex": "0x2",
      "blockHash": "0x716eb04dd05bdd93e661bcd50deed05d13ce9e28b00791a22e718e5b260e716a",
      "blockNumber": "0x18a9d35",
      "gasUsed": "0xd881",
      "effectiveGasPrice": "0x2540be400",
      "from": "0x8e8e5f2eb9b8cd64942777e287982ff986a2c5a1",
      "to": "0xceba9300f2b948710d2653dd7b07f33a8b32118c",
      "contractAddress": null
    },
    {
      "status": "0x1",
      "cumulativeGasUsed": "0xb23f7",
      "logs": [
        {
          "address": "0xceba9300f2b948710d2653dd7b07f33a8b32118c",
          "topics": [
            "0xddf252ad1be2c89b69c2b068fc378daa952ba7f163c4a11628f55a4df523b3ef",
            "0x0000000000000000000000008e8e5f2eb9b8cd64942777e287982ff986a2c5a1",
            "0x000000000000000000000000be729350f8cdfc19db6866e8579841188ee57f67"
          ],
          "data": "0x00000000000000000000000000000000000000000000000000000000000003e8",
          "blockHash": "0x716eb04dd05bdd93e661bcd50deed05d13ce9e28b00791a22e718e5b260e716a",
          "blockNumber": "0x18a9d35",
          "transactionHash": "0x06e15bfde745363546fb6224473d5bb6bc8fd9a767ca589f509bb5ee9d07e2d9",
          "transactionIndex": "0x3",
          "logIndex": "0x7",
          "removed": false
        },
        {
          "address": "0xceba9300f2b948710d2653dd7b07f33a8b32118c",
          "topics": [
            "0x8c5be1e5ebec7d5bd14f71427d1e84f3dd0314c0f7b2291e5b200ac8c7c3b925",
            "0x000000000000000000000000be729350f8cdfc19db6866e8579841188ee57f67",
            "0x000000000000000000000000777a8255ca72412f0d706dc03c9d1987306b4cad"
          ],
          "data": "0x00000000000000000000000000000000000000000000000000000000000003e8",
          "blockHash": "0x716eb04dd05bdd93e661bcd50deed05d13ce9e28b00791a22e718e5b260e716a",
          "blockNumber": "0x18a9d35",
          "transactionHash": "0x06e15bfde745363546fb6224473d5bb6bc8fd9a767ca589f509bb5ee9d07e2d9",
          "transactionIndex": "0x3",
          "logIndex": "0x8",
          "removed": false
        },
        {
          "address": "0xceba9300f2b948710d2653dd7b07f33a8b32118c",
          "topics": [
            "0xddf252ad1be2c89b69c2b068fc378daa952ba7f163c4a11628f55a4df523b3ef",
            "0x000000000000000000000000be729350f8cdfc19db6866e8579841188ee57f67",
            "0x0000000000000000000000009380fa34fd9e4fd14c06305fd7b6199089ed4eb9"
          ],
          "data": "0x00000000000000000000000000000000000000000000000000000000000003e8",
          "blockHash": "0x716eb04dd05bdd93e661bcd50deed05d13ce9e28b00791a22e718e5b260e716a",
          "blockNumber": "0x18a9d35",
          "transactionHash": "0x06e15bfde745363546fb6224473d5bb6bc8fd9a767ca589f509bb5ee9d07e2d9",
          "transactionIndex": "0x3",
          "logIndex": "0x9",
          "removed": false
        },
        {
          "address": "0x765de816845861e75a25fca122bb6898b8b1282a",
          "topics": [
            "0xddf252ad1be2c89b69c2b068fc378daa952ba7f163c4a11628f55a4df523b3ef",
            "0x0000000000000000000000000000000000000000000000000000000000000000",
            "0x000000000000000000000000be729350f8cdfc19db6866e8579841188ee57f67"
          ],
          "data": "0x00000000000000000000000000000000000000000000000000038d4918109180",
          "blockHash": "0x716eb04dd05bdd93e661bcd50deed05d13ce9e28b00791a22e718e5b260e716a",
          "blockNumber": "0x18a9d35",
          "transactionHash": "0x06e15bfde745363546fb6224473d5bb6bc8fd9a767ca589f509bb5ee9d07e2d9",
          "transactionIndex": "0x3",
          "logIndex": "0xa",
          "removed": false
        },
        {
          "address": "0x777a8255ca72412f0d706dc03c9d1987306b4cad",
          "topics": [
            "0xe7b046415cac9de47940c3087e06db13a0e058ccf53ac5f0edd49ebb4c2c3a6f",
            "0xacc988382b66ee5456086643dcfd9a5ca43dd8f428f6ef22503d8b8013bcffd7",
            "0x000000000000000000000000be729350f8cdfc19db6866e8579841188ee57f67",
            "0x000000000000000000000000ceba9300f2b948710d2653dd7b07f33a8b32118c"
          ],
          "data": "0x00000000000000000000000022d9db95e6ae61c104a7b6f6c78d7993b94ec901000000000000000000000000765de816845861e75a25fca122bb6898b8b1282a00000000000000000000000000000000000000000000000000000000000003e800000000000000000000000000000000000000000000000000038d4918109180",
          "blockHash": "0x716eb04dd05bdd93e661bcd50deed05d13ce9e28b00791a22e718e5b260e716a",
          "blockNumber": "0x18a9d35",
          "transactionHash": "0x06e15bfde745363546fb6224473d5bb6bc8fd9a767ca589f509bb5ee9d07e2d9",
          "transactionIndex": "0x3",
          "logIndex": "0xb",
          "removed": false
        },
        {
          "address": "0x765de816845861e75a25fca122bb6898b8b1282a",
          "topics": [
            "0x8c5be1e5ebec7d5bd14f71427d1e84f3dd0314c0f7b2291e5b200ac8c7c3b925",
            "0x000000000000000000000000be729350f8cdfc19db6866e8579841188ee57f67",
            "0x000000000000000000000000777a8255ca72412f0d706dc03c9d1987306b4cad"
          ],
          "data": "0x00000000000000000000000000000000000000000000000000038d4918109180",
          "blockHash": "0x716eb04dd05bdd93e661bcd50deed05d13ce9e28b00791a22e718e5b260e716a",
          "blockNumber": "0x18a9d35",
          "transactionHash": "0x06e15bfde745363546fb6224473d5bb6bc8fd9a767ca589f509bb5ee9d07e2d9",
          "transactionIndex": "0x3",
          "logIndex": "0xc",
          "removed": false
        },
        {
          "address": "0x765de816845861e75a25fca122bb6898b8b1282a",
          "topics": [
            "0x8c5be1e5ebec7d5bd14f71427d1e84f3dd0314c0f7b2291e5b200ac8c7c3b925",
            "0x000000000000000000000000be729350f8cdfc19db6866e8579841188ee57f67",
            "0x000000000000000000000000777a8255ca72412f0d706dc03c9d1987306b4cad"
          ],
          "data": "0x0000000000000000000000000000000000000000000000000000000000000000",
          "blockHash": "0x716eb04dd05bdd93e661bcd50deed05d13ce9e28b00791a22e718e5b260e716a",
          "blockNumber": "0x18a9d35",
          "transactionHash": "0x06e15bfde745363546fb6224473d5bb6bc8fd9a767ca589f509bb5ee9d07e2d9",
          "transactionIndex": "0x3",
          "logIndex": "0xd",
          "removed": false
        },
        {
          "address": "0x765de816845861e75a25fca122bb6898b8b1282a",
          "topics": [
            "0xddf252ad1be2c89b69c2b068fc378daa952ba7f163c4a11628f55a4df523b3ef",
            "0x000000000000000000000000be729350f8cdfc19db6866e8579841188ee57f67",
            "0x000000000000000000000000777a8255ca72412f0d706dc03c9d1987306b4cad"
          ],
          "data": "0x00000000000000000000000000000000000000000000000000038d4918109180",
          "blockHash": "0x716eb04dd05bdd93e661bcd50deed05d13ce9e28b00791a22e718e5b260e716a",
          "blockNumber": "0x18a9d35",
          "transactionHash": "0x06e15bfde745363546fb6224473d5bb6bc8fd9a767ca589f509bb5ee9d07e2d9",
          "transactionIndex": "0x3",
          "logIndex": "0xe",
          "removed": false
        },
        {
          "address": "0x765de816845861e75a25fca122bb6898b8b1282a",
          "topics": [
            "0xddf252ad1be2c89b69c2b068fc378daa952ba7f163c4a11628f55a4df523b3ef",
            "0x000000000000000000000000777a8255ca72412f0d706dc03c9d1987306b4cad",
            "0x0000000000000000000000000000000000000000000000000000000000000000"
          ],
          "data": "0x00000000000000000000000000000000000000000000000000038d4918109180",
          "blockHash": "0x716eb04dd05bdd93e661bcd50deed05d13ce9e28b00791a22e718e5b260e716a",
          "blockNumber": "0x18a9d35",
          "transactionHash": "0x06e15bfde745363546fb6224473d5bb6bc8fd9a767ca589f509bb5ee9d07e2d9",
          "transactionIndex": "0x3",
          "logIndex": "0xf",
          "removed": false
        },
        {
          "address": "0x456a3d042c0dbd3db53d5489e98dfb038553b0d0",
          "topics": [
            "0xddf252ad1be2c89b69c2b068fc378daa952ba7f163c4a11628f55a4df523b3ef",
            "0x0000000000000000000000000000000000000000000000000000000000000000",
            "0x000000000000000000000000be729350f8cdfc19db6866e8579841188ee57f67"
          ],
          "data": "0x00000000000000000000000000000000000000000000000001ceae5d603d52e7",
          "blockHash": "0x716eb04dd05bdd93e661bcd50deed05d13ce9e28b00791a22e718e5b260e716a",
          "blockNumber": "0x18a9d35",
          "transactionHash": "0x06e15bfde745363546fb6224473d5bb6bc8fd9a767ca589f509bb5ee9d07e2d9",
          "transactionIndex": "0x3",
          "logIndex": "0x10",
          "removed": false
        },
        {
          "address": "0x777a8255ca72412f0d706dc03c9d1987306b4cad",
          "topics": [
            "0xe7b046415cac9de47940c3087e06db13a0e058ccf53ac5f0edd49ebb4c2c3a6f",
            "0x89de88b8eb790de26f4649f543cb6893d93635c728ac857f0926e842fb0d298b",
            "0x000000000000000000000000be729350f8cdfc19db6866e8579841188ee57f67",
            "0x000000000000000000000000765de816845861e75a25fca122bb6898b8b1282a"
          ],
          "data": "0x00000000000000000000000022d9db95e6ae61c104a7b6f6c78d7993b94ec901000000000000000000000000456a3d042c0dbd3db53d5489e98dfb038553b0d000000000000000000000000000000000000000000000000000038d491810918000000000000000000000000000000000000000000000000001ceae5d603d52e7",
          "blockHash": "0x716eb04dd05bdd93e661bcd50deed05d13ce9e28b00791a22e718e5b260e716a",
          "blockNumber": "0x18a9d35",
          "transactionHash": "0x06e15bfde745363546fb6224473d5bb6bc8fd9a767ca589f509bb5ee9d07e2d9",
          "transactionIndex": "0x3",
          "logIndex": "0x11",
          "removed": false
        },
        {
          "address": "0x456a3d042c0dbd3db53d5489e98dfb038553b0d0",
          "topics": [
            "0xddf252ad1be2c89b69c2b068fc378daa952ba7f163c4a11628f55a4df523b3ef",
            "0x000000000000000000000000be729350f8cdfc19db6866e8579841188ee57f67",
            "0x0000000000000000000000008e8e5f2eb9b8cd64942777e287982ff986a2c5a1"
          ],
          "data": "0x00000000000000000000000000000000000000000000000001ceae5d603d52e7",
          "blockHash": "0x716eb04dd05bdd93e661bcd50deed05d13ce9e28b00791a22e718e5b260e716a",
          "blockNumber": "0x18a9d35",
          "transactionHash": "0x06e15bfde745363546fb6224473d5bb6bc8fd9a767ca589f509bb5ee9d07e2d9",
          "transactionIndex": "0x3",
          "logIndex": "0x12",
          "removed": false
        }
      ],
      "logsBloom": "0x00801000000000000000100000000200000000008000000000000000000000000000080000000000000000002000000000000000000000000000000000200000000000002000000000000008000000010000000000000000000000000000000000008000020000000000000000000c00000000000000000000000010002040000000000000200000001000001000000000000000000000000800000000000000020001004000001100000000000000000000000000000000000040000204800000000002000000000000020000000000002800000004000004000000000020000010004000004010000c40000000000000000080000000300000000000000000",
      "type": "0x0",
      "transactionHash": "0x06e15bfde745363546fb6224473d5bb6bc8fd9a767ca589f509bb5ee9d07e2d9",
      "transactionIndex": "0x3",
      "blockHash": "0x716eb04dd05bdd93e661bcd50deed05d13ce9e28b00791a22e718e5b260e716a",
      "blockNumber": "0x18a9d35",
      "gasUsed": "0x7a737",
      "effectiveGasPrice": "0x2540be400",
      "from": "0x8e8e5f2eb9b8cd64942777e287982ff986a2c5a1",
      "to": "0xbe729350f8cdfc19db6866e8579841188ee57f67",
      "contractAddress": null
    },
    {
      "status": "0x1",
      "cumulativeGasUsed": "0x18868d",
      "logs": [
        {
          "address": "0xceba9300f2b948710d2653dd7b07f33a8b32118c",
          "topics": [
            "0xddf252ad1be2c89b69c2b068fc378daa952ba7f163c4a11628f55a4df523b3ef",
            "0x0000000000000000000000008e8e5f2eb9b8cd64942777e287982ff986a2c5a1",
            "0x000000000000000000000000be729350f8cdfc19db6866e8579841188ee57f67"
          ],
          "data": "0x00000000000000000000000000000000000000000000000000000000000003d2",
          "blockHash": "0x716eb04dd05bdd93e661bcd50deed05d13ce9e28b00791a22e718e5b260e716a",
          "blockNumber": "0x18a9d35",
          "transactionHash": "0x105057c33b90dcc3da37609e56bd0d1295d4a29016ec8c6f3da058eb192d7fbe",
          "transactionIndex": "0x4",
          "logIndex": "0x13",
          "removed": false
        },
        {
          "address": "0xceba9300f2b948710d2653dd7b07f33a8b32118c",
          "topics": [
            "0x8c5be1e5ebec7d5bd14f71427d1e84f3dd0314c0f7b2291e5b200ac8c7c3b925",
            "0x000000000000000000000000be729350f8cdfc19db6866e8579841188ee57f67",
            "0x000000000000000000000000777a8255ca72412f0d706dc03c9d1987306b4cad"
          ],
          "data": "0x00000000000000000000000000000000000000000000000000000000000003d2",
          "blockHash": "0x716eb04dd05bdd93e661bcd50deed05d13ce9e28b00791a22e718e5b260e716a",
          "blockNumber": "0x18a9d35",
          "transactionHash": "0x105057c33b90dcc3da37609e56bd0d1295d4a29016ec8c6f3da058eb192d7fbe",
          "transactionIndex": "0x4",
          "logIndex": "0x14",
          "removed": false
        },
        {
          "address": "0xceba9300f2b948710d2653dd7b07f33a8b32118c",
          "topics": [
            "0xddf252ad1be2c89b69c2b068fc378daa952ba7f163c4a11628f55a4df523b3ef",
            "0x000000000000000000000000be729350f8cdfc19db6866e8579841188ee57f67",
            "0x0000000000000000000000009380fa34fd9e4fd14c06305fd7b6199089ed4eb9"
          ],
          "data": "0x00000000000000000000000000000000000000000000000000000000000003d2",
          "blockHash": "0x716eb04dd05bdd93e661bcd50deed05d13ce9e28b00791a22e718e5b260e716a",
          "blockNumber": "0x18a9d35",
          "transactionHash": "0x105057c33b90dcc3da37609e56bd0d1295d4a29016ec8c6f3da058eb192d7fbe",
          "transactionIndex": "0x4",
          "logIndex": "0x15",
          "removed": false
        },
        {
          "address": "0x765de816845861e75a25fca122bb6898b8b1282a",
          "topics": [
            "0xddf252ad1be2c89b69c2b068fc378daa952ba7f163c4a11628f55a4df523b3ef",
            "0x0000000000000000000000000000000000000000000000000000000000000000",
            "0x000000000000000000000000be729350f8cdfc19db6866e8579841188ee57f67"
          ],
          "data": "0x00000000000000000000000000000000000000000000000000037947ff78a6e0",
          "blockHash": "0x716eb04dd05bdd93e661bcd50deed05d13ce9e28b00791a22e718e5b260e716a",
          "blockNumber": "0x18a9d35",
          "transactionHash": "0x105057c33b90dcc3da37609e56bd0d1295d4a29016ec8c6f3da058eb192d7fbe",
          "transactionIndex": "0x4",
          "logIndex": "0x16",
          "removed": false
        },
        {
          "address": "0x777a8255ca72412f0d706dc03c9d1987306b4cad",
          "topics": [
            "0xe7b046415cac9de47940c3087e06db13a0e058ccf53ac5f0edd49ebb4c2c3a6f",
            "0xacc988382b66ee5456086643dcfd9a5ca43dd8f428f6ef22503d8b8013bcffd7",
            "0x000000000000000000000000be729350f8cdfc19db6866e8579841188ee57f67",
            "0x000000000000000000000000ceba9300f2b948710d2653dd7b07f33a8b32118c"
          ],
          "data": "0x00000000000000000000000022d9db95e6ae61c104a7b6f6c78d7993b94ec901000000000000000000000000765de816845861e75a25fca122bb6898b8b1282a00000000000000000000000000000000000000000000000000000000000003d200000000000000000000000000000000000000000000000000037947ff78a6e0",
          "blockHash": "0x716eb04dd05bdd93e661bcd50deed05d13ce9e28b00791a22e718e5b260e716a",
          "blockNumber": "0x18a9d35",
          "transactionHash": "0x105057c33b90dcc3da37609e56bd0d1295d4a29016ec8c6f3da058eb192d7fbe",
          "transactionIndex": "0x4",
          "logIndex": "0x17",
          "removed": false
        },
        {
          "address": "0x765de816845861e75a25fca122bb6898b8b1282a",
          "topics": [
            "0x8c5be1e5ebec7d5bd14f71427d1e84f3dd0314c0f7b2291e5b200ac8c7c3b925",
            "0x000000000000000000000000be729350f8cdfc19db6866e8579841188ee57f67",
            "0x000000000000000000000000777a8255ca72412f0d706dc03c9d1987306b4cad"
          ],
          "data": "0x00000000000000000000000000000000000000000000000000037947ff78a6e0",
          "blockHash": "0x716eb04dd05bdd93e661bcd50deed05d13ce9e28b00791a22e718e5b260e716a",
          "blockNumber": "0x18a9d35",
          "transactionHash": "0x105057c33b90dcc3da37609e56bd0d1295d4a29016ec8c6f3da058eb192d7fbe",
          "transactionIndex": "0x4",
          "logIndex": "0x18",
          "removed": false
        },
        {
          "address": "0x765de816845861e75a25fca122bb6898b8b1282a",
          "topics": [
            "0x8c5be1e5ebec7d5bd14f71427d1e84f3dd0314c0f7b2291e5b200ac8c7c3b925",
            "0x000000000000000000000000be729350f8cdfc19db6866e8579841188ee57f67",
            "0x000000000000000000000000777a8255ca72412f0d706dc03c9d1987306b4cad"
          ],
          "data": "0x0000000000000000000000000000000000000000000000000000000000000000",
          "blockHash": "0x716eb04dd05bdd93e661bcd50deed05d13ce9e28b00791a22e718e5b260e716a",
          "blockNumber": "0x18a9d35",
          "transactionHash": "0x105057c33b90dcc3da37609e56bd0d1295d4a29016ec8c6f3da058eb192d7fbe",
          "transactionIndex": "0x4",
          "logIndex": "0x19",
          "removed": false
        },
        {
          "address": "0x765de816845861e75a25fca122bb6898b8b1282a",
          "topics": [
            "0xddf252ad1be2c89b69c2b068fc378daa952ba7f163c4a11628f55a4df523b3ef",
            "0x000000000000000000000000be729350f8cdfc19db6866e8579841188ee57f67",
            "0x000000000000000000000000777a8255ca72412f0d706dc03c9d1987306b4cad"
          ],
          "data": "0x00000000000000000000000000000000000000000000000000037947ff78a6e0",
          "blockHash": "0x716eb04dd05bdd93e661bcd50deed05d13ce9e28b00791a22e718e5b260e716a",
          "blockNumber": "0x18a9d35",
          "transactionHash": "0x105057c33b90dcc3da37609e56bd0d1295d4a29016ec8c6f3da058eb192d7fbe",
          "transactionIndex": "0x4",
          "logIndex": "0x1a",
          "removed": false
        },
        {
          "address": "0x765de816845861e75a25fca122bb6898b8b1282a",
          "topics": [
            "0xddf252ad1be2c89b69c2b068fc378daa952ba7f163c4a11628f55a4df523b3ef",
            "0x000000000000000000000000777a8255ca72412f0d706dc03c9d1987306b4cad",
            "0x0000000000000000000000000000000000000000000000000000000000000000"
          ],
          "data": "0x00000000000000000000000000000000000000000000000000037947ff78a6e0",
          "blockHash": "0x716eb04dd05bdd93e661bcd50deed05d13ce9e28b00791a22e718e5b260e716a",
          "blockNumber": "0x18a9d35",
          "transactionHash": "0x105057c33b90dcc3da37609e56bd0d1295d4a29016ec8c6f3da058eb192d7fbe",
          "transactionIndex": "0x4",
          "logIndex": "0x1b",
          "removed": false
        },
        {
          "address": "0xeb466342c4d449bc9f53a865d5cb90586f405215",
          "topics": [
            "0xddf252ad1be2c89b69c2b068fc378daa952ba7f163c4a11628f55a4df523b3ef",
            "0x0000000000000000000000009380fa34fd9e4fd14c06305fd7b6199089ed4eb9",
            "0x000000000000000000000000be729350f8cdfc19db6866e8579841188ee57f67"
          ],
          "data": "0x00000000000000000000000000000000000000000000000000000000000003d1",
          "blockHash": "0x716eb04dd05bdd93e661bcd50deed05d13ce9e28b00791a22e718e5b260e716a",
          "blockNumber": "0x18a9d35",
          "transactionHash": "0x105057c33b90dcc3da37609e56bd0d1295d4a29016ec8c6f3da058eb192d7fbe",
          "transactionIndex": "0x4",
          "logIndex": "0x1c",
          "removed": false
        },
        {
          "address": "0x9380fa34fd9e4fd14c06305fd7b6199089ed4eb9",
          "topics": [
            "0xc171b15fb47a5beb3e11b1951d4518544f699edd6acd893d8695c91703922b60",
            "0x000000000000000000000000777a8255ca72412f0d706dc03c9d1987306b4cad",
            "0x000000000000000000000000be729350f8cdfc19db6866e8579841188ee57f67"
          ],
          "data": "0x00000000000000000000000000000000000000000000000000000000000003d1000000000000000000000000eb466342c4d449bc9f53a865d5cb90586f405215",
          "blockHash": "0x716eb04dd05bdd93e661bcd50deed05d13ce9e28b00791a22e718e5b260e716a",
          "blockNumber": "0x18a9d35",
          "transactionHash": "0x105057c33b90dcc3da37609e56bd0d1295d4a29016ec8c6f3da058eb192d7fbe",
          "transactionIndex": "0x4",
          "logIndex": "0x1d",
          "removed": false
        },
        {
          "address": "0x777a8255ca72412f0d706dc03c9d1987306b4cad",
          "topics": [
            "0xe7b046415cac9de47940c3087e06db13a0e058ccf53ac5f0edd49ebb4c2c3a6f",
            "0x0d739efbfc30f303e8d1976c213b4040850d1af40f174f4169b846f6fd3d2f20",
            "0x000000000000000000000000be729350f8cdfc19db6866e8579841188ee57f67",
            "0x000000000000000000000000765de816845861e75a25fca122bb6898b8b1282a"
          ],
          "data": "0x00000000000000000000000022d9db95e6ae61c104a7b6f6c78d7993b94ec901000000000000000000000000eb466342c4d449bc9f53a865d5cb90586f40521500000000000000000000000000000000000000000000000000037947ff78a6e000000000000000000000000000000000000000000000000000000000000003d1",
          "blockHash": "0x716eb04dd05bdd93e661bcd50deed05d13ce9e28b00791a22e718e5b260e716a",
          "blockNumber": "0x18a9d35",
          "transactionHash": "0x105057c33b90dcc3da37609e56bd0d1295d4a29016ec8c6f3da058eb192d7fbe",
          "transactionIndex": "0x4",
          "logIndex": "0x1e",
          "removed": false
        },
        {
          "address": "0xeb466342c4d449bc9f53a865d5cb90586f405215",
          "topics": [
            "0x8c5be1e5ebec7d5bd14f71427d1e84f3dd0314c0f7b2291e5b200ac8c7c3b925",
            "0x000000000000000000000000be729350f8cdfc19db6866e8579841188ee57f67",
            "0x000000000000000000000000777a8255ca72412f0d706dc03c9d1987306b4cad"
          ],
          "data": "0x00000000000000000000000000000000000000000000000000000000000003d1",
          "blockHash": "0x716eb04dd05bdd93e661bcd50deed05d13ce9e28b00791a22e718e5b260e716a",
          "blockNumber": "0x18a9d35",
          "transactionHash": "0x105057c33b90dcc3da37609e56bd0d1295d4a29016ec8c6f3da058eb192d7fbe",
          "transactionIndex": "0x4",
          "logIndex": "0x1f",
          "removed": false
        },
        {
          "address": "0xeb466342c4d449bc9f53a865d5cb90586f405215",
          "topics": [
            "0x8c5be1e5ebec7d5bd14f71427d1e84f3dd0314c0f7b2291e5b200ac8c7c3b925",
            "0x000000000000000000000000be729350f8cdfc19db6866e8579841188ee57f67",
            "0x000000000000000000000000777a8255ca72412f0d706dc03c9d1987306b4cad"
          ],
          "data": "0x0000000000000000000000000000000000000000000000000000000000000000",
          "blockHash": "0x716eb04dd05bdd93e661bcd50deed05d13ce9e28b00791a22e718e5b260e716a",
          "blockNumber": "0x18a9d35",
          "transactionHash": "0x105057c33b90dcc3da37609e56bd0d1295d4a29016ec8c6f3da058eb192d7fbe",
          "transactionIndex": "0x4",
          "logIndex": "0x20",
          "removed": false
        },
        {
          "address": "0xeb466342c4d449bc9f53a865d5cb90586f405215",
          "topics": [
            "0xddf252ad1be2c89b69c2b068fc378daa952ba7f163c4a11628f55a4df523b3ef",
            "0x000000000000000000000000be729350f8cdfc19db6866e8579841188ee57f67",
            "0x0000000000000000000000009380fa34fd9e4fd14c06305fd7b6199089ed4eb9"
          ],
          "data": "0x00000000000000000000000000000000000000000000000000000000000003d1",
          "blockHash": "0x716eb04dd05bdd93e661bcd50deed05d13ce9e28b00791a22e718e5b260e716a",
          "blockNumber": "0x18a9d35",
          "transactionHash": "0x105057c33b90dcc3da37609e56bd0d1295d4a29016ec8c6f3da058eb192d7fbe",
          "transactionIndex": "0x4",
          "logIndex": "0x21",
          "removed": false
        },
        {
          "address": "0xd8763cba276a3738e6de85b4b3bf5fded6d6ca73",
          "topics": [
            "0xddf252ad1be2c89b69c2b068fc378daa952ba7f163c4a11628f55a4df523b3ef",
            "0x0000000000000000000000000000000000000000000000000000000000000000",
            "0x000000000000000000000000be729350f8cdfc19db6866e8579841188ee57f67"
          ],
          "data": "0x000000000000000000000000000000000000000000000000000331426df215bf",
          "blockHash": "0x716eb04dd05bdd93e661bcd50deed05d13ce9e28b00791a22e718e5b260e716a",
          "blockNumber": "0x18a9d35",
          "transactionHash": "0x105057c33b90dcc3da37609e56bd0d1295d4a29016ec8c6f3da058eb192d7fbe",
          "transactionIndex": "0x4",
          "logIndex": "0x22",
          "removed": false
        },
        {
          "address": "0x777a8255ca72412f0d706dc03c9d1987306b4cad",
          "topics": [
            "0xe7b046415cac9de47940c3087e06db13a0e058ccf53ac5f0edd49ebb4c2c3a6f",
            "0xf418803158d881fda22694067bf6479476cec22ecfeeca2f6a65a6259bdbb9c0",
            "0x000000000000000000000000be729350f8cdfc19db6866e8579841188ee57f67",
            "0x000000000000000000000000eb466342c4d449bc9f53a865d5cb90586f405215"
          ],
          "data": "0x00000000000000000000000022d9db95e6ae61c104a7b6f6c78d7993b94ec901000000000000000000000000d8763cba276a3738e6de85b4b3bf5fded6d6ca7300000000000000000000000000000000000000000000000000000000000003d1000000000000000000000000000000000000000000000000000331426df215bf",
          "blockHash": "0x716eb04dd05bdd93e661bcd50deed05d13ce9e28b00791a22e718e5b260e716a",
          "blockNumber": "0x18a9d35",
          "transactionHash": "0x105057c33b90dcc3da37609e56bd0d1295d4a29016ec8c6f3da058eb192d7fbe",
          "transactionIndex": "0x4",
          "logIndex": "0x23",
          "removed": false
        },
        {
          "address": "0xd8763cba276a3738e6de85b4b3bf5fded6d6ca73",
          "topics": [
            "0x8c5be1e5ebec7d5bd14f71427d1e84f3dd0314c0f7b2291e5b200ac8c7c3b925",
            "0x000000000000000000000000be729350f8cdfc19db6866e8579841188ee57f67",
            "0x000000000000000000000000777a8255ca72412f0d706dc03c9d1987306b4cad"
          ],
          "data": "0x000000000000000000000000000000000000000000000000000331426df215bf",
          "blockHash": "0x716eb04dd05bdd93e661bcd50deed05d13ce9e28b00791a22e718e5b260e716a",
          "blockNumber": "0x18a9d35",
          "transactionHash": "0x105057c33b90dcc3da37609e56bd0d1295d4a29016ec8c6f3da058eb192d7fbe",
          "transactionIndex": "0x4",
          "logIndex": "0x24",
          "removed": false
        },
        {
          "address": "0xd8763cba276a3738e6de85b4b3bf5fded6d6ca73",
          "topics": [
            "0x8c5be1e5ebec7d5bd14f71427d1e84f3dd0314c0f7b2291e5b200ac8c7c3b925",
            "0x000000000000000000000000be729350f8cdfc19db6866e8579841188ee57f67",
            "0x000000000000000000000000777a8255ca72412f0d706dc03c9d1987306b4cad"
          ],
          "data": "0x0000000000000000000000000000000000000000000000000000000000000000",
          "blockHash": "0x716eb04dd05bdd93e661bcd50deed05d13ce9e28b00791a22e718e5b260e716a",
          "blockNumber": "0x18a9d35",
          "transactionHash": "0x105057c33b90dcc3da37609e56bd0d1295d4a29016ec8c6f3da058eb192d7fbe",
          "transactionIndex": "0x4",
          "logIndex": "0x25",
          "removed": false
        },
        {
          "address": "0xd8763cba276a3738e6de85b4b3bf5fded6d6ca73",
          "topics": [
            "0xddf252ad1be2c89b69c2b068fc378daa952ba7f163c4a11628f55a4df523b3ef",
            "0x000000000000000000000000be729350f8cdfc19db6866e8579841188ee57f67",
            "0x000000000000000000000000777a8255ca72412f0d706dc03c9d1987306b4cad"
          ],
          "data": "0x000000000000000000000000000000000000000000000000000331426df215bf",
          "blockHash": "0x716eb04dd05bdd93e661bcd50deed05d13ce9e28b00791a22e718e5b260e716a",
          "blockNumber": "0x18a9d35",
          "transactionHash": "0x105057c33b90dcc3da37609e56bd0d1295d4a29016ec8c6f3da058eb192d7fbe",
          "transactionIndex": "0x4",
          "logIndex": "0x26",
          "removed": false
        },
        {
          "address": "0xd8763cba276a3738e6de85b4b3bf5fded6d6ca73",
          "topics": [
            "0xddf252ad1be2c89b69c2b068fc378daa952ba7f163c4a11628f55a4df523b3ef",
            "0x000000000000000000000000777a8255ca72412f0d706dc03c9d1987306b4cad",
            "0x0000000000000000000000000000000000000000000000000000000000000000"
          ],
          "data": "0x000000000000000000000000000000000000000000000000000331426df215bf",
          "blockHash": "0x716eb04dd05bdd93e661bcd50deed05d13ce9e28b00791a22e718e5b260e716a",
          "blockNumber": "0x18a9d35",
          "transactionHash": "0x105057c33b90dcc3da37609e56bd0d1295d4a29016ec8c6f3da058eb192d7fbe",
          "transactionIndex": "0x4",
          "logIndex": "0x27",
          "removed": false
        },
        {
          "address": "0x061cc5a2c863e0c1cb404006d559db18a34c762d",
          "topics": [
            "0xddf252ad1be2c89b69c2b068fc378daa952ba7f163c4a11628f55a4df523b3ef",
            "0x0000000000000000000000009380fa34fd9e4fd14c06305fd7b6199089ed4eb9",
            "0x000000000000000000000000be729350f8cdfc19db6866e8579841188ee57f67"
          ],
          "data": "0x0000000000000000000000000000000000000000000000000000000000000384",
          "blockHash": "0x716eb04dd05bdd93e661bcd50deed05d13ce9e28b00791a22e718e5b260e716a",
          "blockNumber": "0x18a9d35",
          "transactionHash": "0x105057c33b90dcc3da37609e56bd0d1295d4a29016ec8c6f3da058eb192d7fbe",
          "transactionIndex": "0x4",
          "logIndex": "0x28",
          "removed": false
        },
        {
          "address": "0x9380fa34fd9e4fd14c06305fd7b6199089ed4eb9",
          "topics": [
            "0xc171b15fb47a5beb3e11b1951d4518544f699edd6acd893d8695c91703922b60",
            "0x000000000000000000000000777a8255ca72412f0d706dc03c9d1987306b4cad",
            "0x000000000000000000000000be729350f8cdfc19db6866e8579841188ee57f67"
          ],
          "data": "0x0000000000000000000000000000000000000000000000000000000000000384000000000000000000000000061cc5a2c863e0c1cb404006d559db18a34c762d",
          "blockHash": "0x716eb04dd05bdd93e661bcd50deed05d13ce9e28b00791a22e718e5b260e716a",
          "blockNumber": "0x18a9d35",
          "transactionHash": "0x105057c33b90dcc3da37609e56bd0d1295d4a29016ec8c6f3da058eb192d7fbe",
          "transactionIndex": "0x4",
          "logIndex": "0x29",
          "removed": false
        },
        {
          "address": "0x777a8255ca72412f0d706dc03c9d1987306b4cad",
          "topics": [
            "0xe7b046415cac9de47940c3087e06db13a0e058ccf53ac5f0edd49ebb4c2c3a6f",
            "0xfca6d94b46122eb9a4b86cf9d3e1e856fea8a826d0fc26c5baf17c43fbaf0f48",
            "0x000000000000000000000000be729350f8cdfc19db6866e8579841188ee57f67",
            "0x000000000000000000000000d8763cba276a3738e6de85b4b3bf5fded6d6ca73"
          ],
          "data": "0x00000000000000000000000022d9db95e6ae61c104a7b6f6c78d7993b94ec901000000000000000000000000061cc5a2c863e0c1cb404006d559db18a34c762d000000000000000000000000000000000000000000000000000331426df215bf0000000000000000000000000000000000000000000000000000000000000384",
          "blockHash": "0x716eb04dd05bdd93e661bcd50deed05d13ce9e28b00791a22e718e5b260e716a",
          "blockNumber": "0x18a9d35",
          "transactionHash": "0x105057c33b90dcc3da37609e56bd0d1295d4a29016ec8c6f3da058eb192d7fbe",
          "transactionIndex": "0x4",
          "logIndex": "0x2a",
          "removed": false
        },
        {
          "address": "0x061cc5a2c863e0c1cb404006d559db18a34c762d",
          "topics": [
            "0xddf252ad1be2c89b69c2b068fc378daa952ba7f163c4a11628f55a4df523b3ef",
            "0x000000000000000000000000be729350f8cdfc19db6866e8579841188ee57f67",
            "0x0000000000000000000000008e8e5f2eb9b8cd64942777e287982ff986a2c5a1"
          ],
          "data": "0x0000000000000000000000000000000000000000000000000000000000000384",
          "blockHash": "0x716eb04dd05bdd93e661bcd50deed05d13ce9e28b00791a22e718e5b260e716a",
          "blockNumber": "0x18a9d35",
          "transactionHash": "0x105057c33b90dcc3da37609e56bd0d1295d4a29016ec8c6f3da058eb192d7fbe",
          "transactionIndex": "0x4",
          "logIndex": "0x2b",
          "removed": false
        }
      ],
      "logsBloom": "0x408010000001000102001000000002000000000080000000000000000000000000000a0000000000000020002000000100000000000000000000000000200010020000002000000200000048000000110040802000100000000400000000000000008080020000000000000000000c00000800000000000000000110002040000008000000200000001000001000000000000000000000000804000000020000020001000200000100000000400000000000000000000000000040200004800000000002020000000000020001002000002800000000000004000100000020000010000000004010000c40000000000000000080000000100000000000000000",
      "type": "0x0",
      "transactionHash": "0x105057c33b90dcc3da37609e56bd0d1295d4a29016ec8c6f3da058eb192d7fbe",
      "transactionIndex": "0x4",
      "blockHash": "0x716eb04dd05bdd93e661bcd50deed05d13ce9e28b00791a22e718e5b260e716a",
      "blockNumber": "0x18a9d35",
      "gasUsed": "0xd6296",
      "effectiveGasPrice": "0x2540be400",
      "from": "0x8e8e5f2eb9b8cd64942777e287982ff986a2c5a1",
      "to": "0xbe729350f8cdfc19db6866e8579841188ee57f67",
      "contractAddress": null
    }
  ],
  "libraries": [],
  "pending": [],
  "returns": {},
  "timestamp": 1716978227,
  "chain": 42220,
  "commit": "3899797"
}