{
  "transactions": [
    {
      "hash": "0x1b52abe3f4c15f0bbb894a8ebeb51ac6616dde90ce987de06f376c708de095e7",
      "transactionType": "CALL",
      "contractName": null,
      "contractAddress": "0xceba9300f2b948710d2653dd7b07f33a8b32118c",
      "function": "approve(address,uint256)",
      "arguments": [
        "0xE35CbF589eeA1bEE0cAD7575db96fD430020A14F",
        "2000"
      ],
      "transaction": {
        "from": "0x8e8e5f2eb9b8cd64942777e287982ff986a2c5a1",
        "to": "0xceba9300f2b948710d2653dd7b07f33a8b32118c",
        "gas": "0xdae0",
        "value": "0x0",
        "input": "0x095ea7b3000000000000000000000000e35cbf589eea1bee0cad7575db96fd430020a14f00000000000000000000000000000000000000000000000000000000000007d0",
        "nonce": "0x1d",
        "chainId": "0xa4ec"
      },
      "additionalContracts": [],
      "isFixedGasLimit": false
    },
    {
      "hash": "0x22b8f10ca5b782163781b12eb62b635fc3b922e71229d213207d0188fe93df06",
      "transactionType": "CALL",
      "contractName": null,
      "contractAddress": "0xe35cbf589eea1bee0cad7575db96fd430020a14f",
      "function": "swapExactTokensForTokens(uint256,uint256,(address,bytes32,address,address)[])",
      "arguments": [
        "1000",
        "0",
        "[(0x22d9db95E6Ae61c104A7B6F6C78D7993B94ec901, 0xacc988382b66ee5456086643dcfd9a5ca43dd8f428f6ef22503d8b8013bcffd7, 0xcebA9300f2b948710d2653dD7B07f33A8B32118C, 0x765DE816845861e75A25fCA122bb6898B8B1282a), (0x22d9db95E6Ae61c104A7B6F6C78D7993B94ec901, 0x89de88b8eb790de26f4649f543cb6893d93635c728ac857f0926e842fb0d298b, 0x765DE816845861e75A25fCA122bb6898B8B1282a, 0x456a3D042C0DbD3db53D5489e98dFb038553B0d0)]"
      ],
      "transaction": {
        "from": "0x8e8e5f2eb9b8cd64942777e287982ff986a2c5a1",
        "to": "0xe35cbf589eea1bee0cad7575db96fd430020a14f",
        "gas": "0xb180e",
        "value": "0x0",
        "input": "0x723d40f700000000000000000000000000000000000000000000000000000000000003e800000000000000000000000000000000000000000000000000000000000000000000000000000000000000000000000000000000000000000000000000000060000000000000000000000000000000000000000000000000000000000000000200000000000000000000000022d9db95e6ae61c104a7b6f6c78d7993b94ec901acc988382b66ee5456086643dcfd9a5ca43dd8f428f6ef22503d8b8013bcffd7000000000000000000000000ceba9300f2b948710d2653dd7b07f33a8b32118c000000000000000000000000765de816845861e75a25fca122bb6898b8b1282a00000000000000000000000022d9db95e6ae61c104a7b6f6c78d7993b94ec90189de88b8eb790de26f4649f543cb6893d93635c728ac857f0926e842fb0d298b000000000000000000000000765de816845861e75a25fca122bb6898b8b1282a000000000000000000000000456a3d042c0dbd3db53d5489e98dfb038553b0d0",
        "nonce": "0x1e",
        "chainId": "0xa4ec"
      },
      "additionalContracts": [],
      "isFixedGasLimit": false
    },
    {
      "hash": "0x60dd20cc9517d9b62152fbd577aa8813b34fa5434538e3f7bcb3cc054224dcb9",
      "transactionType": "CALL",
      "contractName": null,
      "contractAddress": "0xe35cbf589eea1bee0cad7575db96fd430020a14f",
      "function": "swapTokensForExactTokens(uint256,uint256,(address,bytes32,address,address)[])",
      "arguments": [
        "900",
        "1000",
        "[(0x22d9db95E6Ae61c104A7B6F6C78D7993B94ec901, 0xacc988382b66ee5456086643dcfd9a5ca43dd8f428f6ef22503d8b8013bcffd7, 0xcebA9300f2b948710d2653dD7B07f33A8B32118C, 0x765DE816845861e75A25fCA122bb6898B8B1282a), (0x22d9db95E6Ae61c104A7B6F6C78D7993B94ec901, 0x0d739efbfc30f303e8d1976c213b4040850d1af40f174f4169b846f6fd3d2f20, 0x765DE816845861e75A25fCA122bb6898B8B1282a, 0xEB466342C4d449BC9f53A865D5Cb90586f405215), (0x22d9db95E6Ae61c104A7B6F6C78D7993B94ec901, 0xf418803158d881fda22694067bf6479476cec22ecfeeca2f6a65a6259bdbb9c0, 0xEB466342C4d449BC9f53A865D5Cb90586f405215, 0xD8763CBa276a3738E6DE85b4b3bF5FDed6D6cA73), (0x22d9db95E6Ae61c104A7B6F6C78D7993B94ec901, 0xfca6d94b46122eb9a4b86cf9d3e1e856fea8a826d0fc26c5baf17c43fbaf0f48, 0xD8763CBa276a3738E6DE85b4b3bF5FDed6D6cA73, 0x061cc5a2C863E0C1Cb404006D559dB18A34C762d)]"
      ],
      "transaction": {
        "from": "0x8e8e5f2eb9b8cd64942777e287982ff986a2c5a1",
        "to": "0xe35cbf589eea1bee0cad7575db96fd430020a14f",
        "gas": "0x1397f2",
        "value": "0x0",
        "input": "0xd9b67a31000000000000000000000000000000000000000000000000000000000000038400000000000000000000000000000000000000000000000000000000000003e80000000000000000000000000000000000000000000000000000000000000060000000000000000000000000000000000000000000000000000000000000000400000000000000000000000022d9db95e6ae61c104a7b6f6c78d7993b94ec901acc988382b66ee5456086643dcfd9a5ca43dd8f428f6ef22503d8b8013bcffd7000000000000000000000000ceba9300f2b948710d2653dd7b07f33a8b32118c000000000000000000000000765de816845861e75a25fca122bb6898b8b1282a00000000000000000000000022d9db95e6ae61c104a7b6f6c78d7993b94ec9010d739efbfc30f303e8d1976c213b4040850d1af40f174f4169b846f6fd3d2f20000000000000000000000000765de816845861e75a25fca122bb6898b8b1282a000000000000000000000000eb466342c4d449bc9f53a865d5cb90586f40521500000000000000000000000022d9db95e6ae61c104a7b6f6c78d7993b94ec901f418803158d881fda22694067bf6479476cec22ecfeeca2f6a65a6259bdbb9c0000000000000000000000000eb466342c4d449bc9f53a865d5cb90586f405215000000000000000000000000d8763cba276a3738e6de85b4b3bf5fded6d6ca7300000000000000000000000022d9db95e6ae61c104a7b6f6c78d7993b94ec901fca6d94b46122eb9a4b86cf9d3e1e856fea8a826d0fc26c5baf17c43fbaf0f48000000000000000000000000d8763cba276a3738e6de85b4b3bf5fded6d6ca73000000000000000000000000061cc5a2c863e0c1cb404006d559db18a34c762d",
        "nonce": "0x1f",
        "chainId": "0xa4ec"
      },
      "additionalContracts": [],
      "isFixedGasLimit": false
    }
  ],
  "receipts": [
    {
      "status": "0x1",
      "cumulativeGasUsed": "0x151c97",
      "logs": [
        {
          "address": "0xceba9300f2b948710d2653dd7b07f33a8b32118c",
          "topics": [
            "0x8c5be1e5ebec7d5bd14f71427d1e84f3dd0314c0f7b2291e5b200ac8c7c3b925",
            "0x0000000000000000000000008e8e5f2eb9b8cd64942777e287982ff986a2c5a1",
            "0x000000000000000000000000e35cbf589eea1bee0cad7575db96fd430020a14f"
          ],
          "data": "0x00000000000000000000000000000000000000000000000000000000000007d0",
          "blockHash": "0xdeacf6b872685313548db12f4b43f23435ded71134a227a3dde6b26d28b7d0ac",
          "blockNumber": "0x18a9849",
          "transactionHash": "0x1b52abe3f4c15f0bbb894a8ebeb51ac6616dde90ce987de06f376c708de095e7",
          "transactionIndex": "0x5",
          "logIndex": "0x1a",
          "removed": false
        }
      ],
      "logsBloom": "0x00000000000000000000100000000200000000000000000000000000000000000000000000000100000000000000000000000000000000000000000000200000000000000000000000000000000000000000000000000000000000000000000000000000000000000000000000000000000000000000000000000000000040000000000000000000000000000000000000000000000000000000000040000000020000000000000000000000000000000000000000000000000000000000000000000000000000000000020000000000000000000000000000000000000000000010000000008000000800000000000000000080000000000000000000000000",
      "type": "0x0",
      "transactionHash": "0x1b52abe3f4c15f0bbb894a8ebeb51ac6616dde90ce987de06f376c708de095e7",
      "transactionIndex": "0x5",
      "blockHash": "0xdeacf6b872685313548db12f4b43f23435ded71134a227a3dde6b26d28b7d0ac",
      "blockNumber": "0x18a9849",
      "gasUsed": "0x95a9",
      "effectiveGasPrice": "0x2540be400",
      "from": "0x8e8e5f2eb9b8cd64942777e287982ff986a2c5a1",
      "to": "0xceba9300f2b948710d2653dd7b07f33a8b32118c",
      "contractAddress": null
    },
    {
      "status": "0x1",
      "cumulativeGasUsed": "0x1d24be",
      "logs": [
        {
          "address": "0xceba9300f2b948710d2653dd7b07f33a8b32118c",
          "topics": [
            "0xddf252ad1be2c89b69c2b068fc378daa952ba7f163c4a11628f55a4df523b3ef",
            "0x0000000000000000000000008e8e5f2eb9b8cd64942777e287982ff986a2c5a1",
            "0x000000000000000000000000e35cbf589eea1bee0cad7575db96fd430020a14f"
          ],
          "data": "0x00000000000000000000000000000000000000000000000000000000000003e8",
          "blockHash": "0xdeacf6b872685313548db12f4b43f23435ded71134a227a3dde6b26d28b7d0ac",
          "blockNumber": "0x18a9849",
          "transactionHash": "0x22b8f10ca5b782163781b12eb62b635fc3b922e71229d213207d0188fe93df06",
          "transactionIndex": "0x6",
          "logIndex": "0x1b",
          "removed": false
        },
        {
          "address": "0xceba9300f2b948710d2653dd7b07f33a8b32118c",
          "topics": [
            "0x8c5be1e5ebec7d5bd14f71427d1e84f3dd0314c0f7b2291e5b200ac8c7c3b925",
            "0x000000000000000000000000e35cbf589eea1bee0cad7575db96fd430020a14f",
            "0x000000000000000000000000777a8255ca72412f0d706dc03c9d1987306b4cad"
          ],
          "data": "0x00000000000000000000000000000000000000000000000000000000000003e8",
          "blockHash": "0xdeacf6b872685313548db12f4b43f23435ded71134a227a3dde6b26d28b7d0ac",
          "blockNumber": "0x18a9849",
          "transactionHash": "0x22b8f10ca5b782163781b12eb62b635fc3b922e71229d213207d0188fe93df06",
          "transactionIndex": "0x6",
          "logIndex": "0x1c",
          "removed": false
        },
        {
          "address": "0xceba9300f2b948710d2653dd7b07f33a8b32118c",
          "topics": [
            "0xddf252ad1be2c89b69c2b068fc378daa952ba7f163c4a11628f55a4df523b3ef",
            "0x000000000000000000000000e35cbf589eea1bee0cad7575db96fd430020a14f",
            "0x0000000000000000000000009380fa34fd9e4fd14c06305fd7b6199089ed4eb9"
          ],
          "data": "0x00000000000000000000000000000000000000000000000000000000000003e8",
          "blockHash": "0xdeacf6b872685313548db12f4b43f23435ded71134a227a3dde6b26d28b7d0ac",
          "blockNumber": "0x18a9849",
          "transactionHash": "0x22b8f10ca5b782163781b12eb62b635fc3b922e71229d213207d0188fe93df06",
          "transactionIndex": "0x6",
          "logIndex": "0x1d",
          "removed": false
        },
        {
          "address": "0x765de816845861e75a25fca122bb6898b8b1282a",
          "topics": [
            "0xddf252ad1be2c89b69c2b068fc378daa952ba7f163c4a11628f55a4df523b3ef",
            "0x0000000000000000000000000000000000000000000000000000000000000000",
            "0x000000000000000000000000e35cbf589eea1bee0cad7575db96fd430020a14f"
          ],
          "data": "0x00000000000000000000000000000000000000000000000000038d4be3060c8c",
          "blockHash": "0xdeacf6b872685313548db12f4b43f23435ded71134a227a3dde6b26d28b7d0ac",
          "blockNumber": "0x18a9849",
          "transactionHash": "0x22b8f10ca5b782163781b12eb62b635fc3b922e71229d213207d0188fe93df06",
          "transactionIndex": "0x6",
          "logIndex": "0x1e",
          "removed": false
        },
        {
          "address": "0x777a8255ca72412f0d706dc03c9d1987306b4cad",
          "topics": [
            "0xe7b046415cac9de47940c3087e06db13a0e058ccf53ac5f0edd49ebb4c2c3a6f",
            "0xacc988382b66ee5456086643dcfd9a5ca43dd8f428f6ef22503d8b8013bcffd7",
            "0x000000000000000000000000e35cbf589eea1bee0cad7575db96fd430020a14f",
            "0x000000000000000000000000ceba9300f2b948710d2653dd7b07f33a8b32118c"
          ],
          "data": "0x00000000000000000000000022d9db95e6ae61c104a7b6f6c78d7993b94ec901000000000000000000000000765de816845861e75a25fca122bb6898b8b1282a00000000000000000000000000000000000000000000000000000000000003e800000000000000000000000000000000000000000000000000038d4be3060c8c",
          "blockHash": "0xdeacf6b872685313548db12f4b43f23435ded71134a227a3dde6b26d28b7d0ac",
          "blockNumber": "0x18a9849",
          "transactionHash": "0x22b8f10ca5b782163781b12eb62b635fc3b922e71229d213207d0188fe93df06",
          "transactionIndex": "0x6",
          "logIndex": "0x1f",
          "removed": false
        },
        {
          "address": "0x765de816845861e75a25fca122bb6898b8b1282a",
          "topics": [
            "0x8c5be1e5ebec7d5bd14f71427d1e84f3dd0314c0f7b2291e5b200ac8c7c3b925",
            "0x000000000000000000000000e35cbf589eea1bee0cad7575db96fd430020a14f",
            "0x000000000000000000000000777a8255ca72412f0d706dc03c9d1987306b4cad"
          ],
          "data": "0x00000000000000000000000000000000000000000000000000038d4be3060c8c",
          "blockHash": "0xdeacf6b872685313548db12f4b43f23435ded71134a227a3dde6b26d28b7d0ac",
          "blockNumber": "0x18a9849",
          "transactionHash": "0x22b8f10ca5b782163781b12eb62b635fc3b922e71229d213207d0188fe93df06",
          "transactionIndex": "0x6",
          "logIndex": "0x20",
          "removed": false
        },
        {
          "address": "0x22d9db95e6ae61c104a7b6f6c78d7993b94ec901",
          "topics": [
            "0x949f5db193cbfa01f2d443b1c656bfede15497de0d86838cea089bd60c438342",
            "0x89de88b8eb790de26f4649f543cb6893d93635c728ac857f0926e842fb0d298b"
          ],
          "data": "0x000000000000000000000000000000000000000000084595161401484a000000000000000000000000000000000000000000000004427648433a654841426ec3",
          "blockHash": "0xdeacf6b872685313548db12f4b43f23435ded71134a227a3dde6b26d28b7d0ac",
          "blockNumber": "0x18a9849",
          "transactionHash": "0x22b8f10ca5b782163781b12eb62b635fc3b922e71229d213207d0188fe93df06",
          "transactionIndex": "0x6",
          "logIndex": "0x21",
          "removed": false
        },
        {
          "address": "0x765de816845861e75a25fca122bb6898b8b1282a",
          "topics": [
            "0x8c5be1e5ebec7d5bd14f71427d1e84f3dd0314c0f7b2291e5b200ac8c7c3b925",
            "0x000000000000000000000000e35cbf589eea1bee0cad7575db96fd430020a14f",
            "0x000000000000000000000000777a8255ca72412f0d706dc03c9d1987306b4cad"
          ],
          "data": "0x0000000000000000000000000000000000000000000000000000000000000000",
          "blockHash": "0xdeacf6b872685313548db12f4b43f23435ded71134a227a3dde6b26d28b7d0ac",
          "blockNumber": "0x18a9849",
          "transactionHash": "0x22b8f10ca5b782163781b12eb62b635fc3b922e71229d213207d0188fe93df06",
          "transactionIndex": "0x6",
          "logIndex": "0x22",
          "removed": false
        },
        {
          "address": "0x765de816845861e75a25fca122bb6898b8b1282a",
          "topics": [
            "0xddf252ad1be2c89b69c2b068fc378daa952ba7f163c4a11628f55a4df523b3ef",
            "0x000000000000000000000000e35cbf589eea1bee0cad7575db96fd430020a14f",
            "0x000000000000000000000000777a8255ca72412f0d706dc03c9d1987306b4cad"
          ],
          "data": "0x00000000000000000000000000000000000000000000000000038d4be3060c8c",
          "blockHash": "0xdeacf6b872685313548db12f4b43f23435ded71134a227a3dde6b26d28b7d0ac",
          "blockNumber": "0x18a9849",
          "transactionHash": "0x22b8f10ca5b782163781b12eb62b635fc3b922e71229d213207d0188fe93df06",
          "transactionIndex": "0x6",
          "logIndex": "0x23",
          "removed": false
        },
        {
          "address": "0x765de816845861e75a25fca122bb6898b8b1282a",
          "topics": [
            "0xddf252ad1be2c89b69c2b068fc378daa952ba7f163c4a11628f55a4df523b3ef",
            "0x000000000000000000000000777a8255ca72412f0d706dc03c9d1987306b4cad",
            "0x0000000000000000000000000000000000000000000000000000000000000000"
          ],
          "data": "0x00000000000000000000000000000000000000000000000000038d4be3060c8c",
          "blockHash": "0xdeacf6b872685313548db12f4b43f23435ded71134a227a3dde6b26d28b7d0ac",
          "blockNumber": "0x18a9849",
          "transactionHash": "0x22b8f10ca5b782163781b12eb62b635fc3b922e71229d213207d0188fe93df06",
          "transactionIndex": "0x6",
          "logIndex": "0x24",
          "removed": false
        },
        {
          "address": "0x456a3d042c0dbd3db53d5489e98dfb038553b0d0",
          "topics": [
            "0xddf252ad1be2c89b69c2b068fc378daa952ba7f163c4a11628f55a4df523b3ef",
            "0x0000000000000000000000000000000000000000000000000000000000000000",
            "0x000000000000000000000000e35cbf589eea1bee0cad7575db96fd430020a14f"
          ],
          "data": "0x00000000000000000000000000000000000000000000000001cf90b7a862be3c",
          "blockHash": "0xdeacf6b872685313548db12f4b43f23435ded71134a227a3dde6b26d28b7d0ac",
          "blockNumber": "0x18a9849",
          "transactionHash": "0x22b8f10ca5b782163781b12eb62b635fc3b922e71229d213207d0188fe93df06",
          "transactionIndex": "0x6",
          "logIndex": "0x25",
          "removed": false
        },
        {
          "address": "0x777a8255ca72412f0d706dc03c9d1987306b4cad",
          "topics": [
            "0xe7b046415cac9de47940c3087e06db13a0e058ccf53ac5f0edd49ebb4c2c3a6f",
            "0x89de88b8eb790de26f4649f543cb6893d93635c728ac857f0926e842fb0d298b",
            "0x000000000000000000000000e35cbf589eea1bee0cad7575db96fd430020a14f",
            "0x000000000000000000000000765de816845861e75a25fca122bb6898b8b1282a"
          ],
          "data": "0x00000000000000000000000022d9db95e6ae61c104a7b6f6c78d7993b94ec901000000000000000000000000456a3d042c0dbd3db53d5489e98dfb038553b0d000000000000000000000000000000000000000000000000000038d4be3060c8c00000000000000000000000000000000000000000000000001cf90b7a862be3c",
          "blockHash": "0xdeacf6b872685313548db12f4b43f23435ded71134a227a3dde6b26d28b7d0ac",
          "blockNumber": "0x18a9849",
          "transactionHash": "0x22b8f10ca5b782163781b12eb62b635fc3b922e71229d213207d0188fe93df06",
          "transactionIndex": "0x6",
          "logIndex": "0x26",
          "removed": false
        },
        {
          "address": "0x456a3d042c0dbd3db53d5489e98dfb038553b0d0",
          "topics": [
            "0xddf252ad1be2c89b69c2b068fc378daa952ba7f163c4a11628f55a4df523b3ef",
            "0x000000000000000000000000e35cbf589eea1bee0cad7575db96fd430020a14f",
            "0x0000000000000000000000008e8e5f2eb9b8cd64942777e287982ff986a2c5a1"
          ],
          "data": "0x00000000000000000000000000000000000000000000000001cf90b7a862be3c",
          "blockHash": "0xdeacf6b872685313548db12f4b43f23435ded71134a227a3dde6b26d28b7d0ac",
          "blockNumber": "0x18a9849",
          "transactionHash": "0x22b8f10ca5b782163781b12eb62b635fc3b922e71229d213207d0188fe93df06",
          "transactionIndex": "0x6",
          "logIndex": "0x27",
          "removed": false
        }
      ],
      "logsBloom": "0x00800000000000000000100000000200000000008000000000000000000000000000080000000100000000002000000000000000000000000000000000200000000000002000000000000008000000010000000000000000000000000000000000008000020000000000000000000c0000000000000000000000001000204000000000000020001040100000100000000000000000000000080000004000000002000100400000110000000000000000000000000000000000004000020408000200000200000000000002000000000000280004000400000000000000002000001000408000c010000c40000000000000000080000000300000000000000000",
      "type": "0x0",
      "transactionHash": "0x22b8f10ca5b782163781b12eb62b635fc3b922e71229d213207d0188fe93df06",
      "transactionIndex": "0x6",
      "blockHash": "0xdeacf6b872685313548db12f4b43f23435ded71134a227a3dde6b26d28b7d0ac",
      "blockNumber": "0x18a9849",
      "gasUsed": "0x80827",
      "effectiveGasPrice": "0x2540be400",
      "from": "0x8e8e5f2eb9b8cd64942777e287982ff986a2c5a1",
      "to": "0xe35cbf589eea1bee0cad7575db96fd430020a14f",
      "contractAddress": null
    },
    {
      "status": "0x1",
      "cumulativeGasUsed": "0x2b5433",
      "logs": [
        {
          "address": "0xceba9300f2b948710d2653dd7b07f33a8b32118c",
          "topics": [
            "0xddf252ad1be2c89b69c2b068fc378daa952ba7f163c4a11628f55a4df523b3ef",
            "0x0000000000000000000000008e8e5f2eb9b8cd64942777e287982ff986a2c5a1",
            "0x000000000000000000000000e35cbf589eea1bee0cad7575db96fd430020a14f"
          ],
          "data": "0x00000000000000000000000000000000000000000000000000000000000003d2",
          "blockHash": "0xdeacf6b872685313548db12f4b43f23435ded71134a227a3dde6b26d28b7d0ac",
          "blockNumber": "0x18a9849",
          "transactionHash": "0x60dd20cc9517d9b62152fbd577aa8813b34fa5434538e3f7bcb3cc054224dcb9",
          "transactionIndex": "0x7",
          "logIndex": "0x28",
          "removed": false
        },
        {
          "address": "0xceba9300f2b948710d2653dd7b07f33a8b32118c",
          "topics": [
            "0x8c5be1e5ebec7d5bd14f71427d1e84f3dd0314c0f7b2291e5b200ac8c7c3b925",
            "0x000000000000000000000000e35cbf589eea1bee0cad7575db96fd430020a14f",
            "0x000000000000000000000000777a8255ca72412f0d706dc03c9d1987306b4cad"
          ],
          "data": "0x00000000000000000000000000000000000000000000000000000000000003d2",
          "blockHash": "0xdeacf6b872685313548db12f4b43f23435ded71134a227a3dde6b26d28b7d0ac",
          "blockNumber": "0x18a9849",
          "transactionHash": "0x60dd20cc9517d9b62152fbd577aa8813b34fa5434538e3f7bcb3cc054224dcb9",
          "transactionIndex": "0x7",
          "logIndex": "0x29",
          "removed": false
        },
        {
          "address": "0xceba9300f2b948710d2653dd7b07f33a8b32118c",
          "topics": [
            "0xddf252ad1be2c89b69c2b068fc378daa952ba7f163c4a11628f55a4df523b3ef",
            "0x000000000000000000000000e35cbf589eea1bee0cad7575db96fd430020a14f",
            "0x0000000000000000000000009380fa34fd9e4fd14c06305fd7b6199089ed4eb9"
          ],
          "data": "0x00000000000000000000000000000000000000000000000000000000000003d2",
          "blockHash": "0xdeacf6b872685313548db12f4b43f23435ded71134a227a3dde6b26d28b7d0ac",
          "blockNumber": "0x18a9849",
          "transactionHash": "0x60dd20cc9517d9b62152fbd577aa8813b34fa5434538e3f7bcb3cc054224dcb9",
          "transactionIndex": "0x7",
          "logIndex": "0x2a",
          "removed": false
        },
        {
          "address": "0x765de816845861e75a25fca122bb6898b8b1282a",
          "topics": [
            "0xddf252ad1be2c89b69c2b068fc378daa952ba7f163c4a11628f55a4df523b3ef",
            "0x0000000000000000000000000000000000000000000000000000000000000000",
            "0x000000000000000000000000e35cbf589eea1bee0cad7575db96fd430020a14f"
          ],
          "data": "0x0000000000000000000000000000000000000000000000000003794abab37be3",
          "blockHash": "0xdeacf6b872685313548db12f4b43f23435ded71134a227a3dde6b26d28b7d0ac",
          "blockNumber": "0x18a9849",
          "transactionHash": "0x60dd20cc9517d9b62152fbd577aa8813b34fa5434538e3f7bcb3cc054224dcb9",
          "transactionIndex": "0x7",
          "logIndex": "0x2b",
          "removed": false
        },
        {
          "address": "0x777a8255ca72412f0d706dc03c9d1987306b4cad",
          "topics": [
            "0xe7b046415cac9de47940c3087e06db13a0e058ccf53ac5f0edd49ebb4c2c3a6f",
            "0xacc988382b66ee5456086643dcfd9a5ca43dd8f428f6ef22503d8b8013bcffd7",
            "0x000000000000000000000000e35cbf589eea1bee0cad7575db96fd430020a14f",
            "0x000000000000000000000000ceba9300f2b948710d2653dd7b07f33a8b32118c"
          ],
          "data": "0x00000000000000000000000022d9db95e6ae61c104a7b6f6c78d7993b94ec901000000000000000000000000765de816845861e75a25fca122bb6898b8b1282a00000000000000000000000000000000000000000000000000000000000003d20000000000000000000000000000000000000000000000000003794abab37be3",
          "blockHash": "0xdeacf6b872685313548db12f4b43f23435ded71134a227a3dde6b26d28b7d0ac",
          "blockNumber": "0x18a9849",
          "transactionHash": "0x60dd20cc9517d9b62152fbd577aa8813b34fa5434538e3f7bcb3cc054224dcb9",
          "transactionIndex": "0x7",
          "logIndex": "0x2c",
          "removed": false
        },
        {
          "address": "0x765de816845861e75a25fca122bb6898b8b1282a",
          "topics": [
            "0x8c5be1e5ebec7d5bd14f71427d1e84f3dd0314c0f7b2291e5b200ac8c7c3b925",
            "0x000000000000000000000000e35cbf589eea1bee0cad7575db96fd430020a14f",
            "0x000000000000000000000000777a8255ca72412f0d706dc03c9d1987306b4cad"
          ],
          "data": "0x000000000000000000000000000000000000000000000000000378ba8c2137f6",
          "blockHash": "0xdeacf6b872685313548db12f4b43f23435ded71134a227a3dde6b26d28b7d0ac",
          "blockNumber": "0x18a9849",
          "transactionHash": "0x60dd20cc9517d9b62152fbd577aa8813b34fa5434538e3f7bcb3cc054224dcb9",
          "transactionIndex": "0x7",
          "logIndex": "0x2d",
          "removed": false
        },
        {
          "address": "0x765de816845861e75a25fca122bb6898b8b1282a",
          "topics": [
            "0x8c5be1e5ebec7d5bd14f71427d1e84f3dd0314c0f7b2291e5b200ac8c7c3b925",
            "0x000000000000000000000000e35cbf589eea1bee0cad7575db96fd430020a14f",
            "0x000000000000000000000000777a8255ca72412f0d706dc03c9d1987306b4cad"
          ],
          "data": "0x0000000000000000000000000000000000000000000000000000000000000000",
          "blockHash": "0xdeacf6b872685313548db12f4b43f23435ded71134a227a3dde6b26d28b7d0ac",
          "blockNumber": "0x18a9849",
          "transactionHash": "0x60dd20cc9517d9b62152fbd577aa8813b34fa5434538e3f7bcb3cc054224dcb9",
          "transactionIndex": "0x7",
          "logIndex": "0x2e",
          "removed": false
        },
        {
          "address": "0x765de816845861e75a25fca122bb6898b8b1282a",
          "topics": [
            "0xddf252ad1be2c89b69c2b068fc378daa952ba7f163c4a11628f55a4df523b3ef",
            "0x000000000000000000000000e35cbf589eea1bee0cad7575db96fd430020a14f",
            "0x000000000000000000000000777a8255ca72412f0d706dc03c9d1987306b4cad"
          ],
          "data": "0x000000000000000000000000000000000000000000000000000378ba8c2137f6",
          "blockHash": "0xdeacf6b872685313548db12f4b43f23435ded71134a227a3dde6b26d28b7d0ac",
          "blockNumber": "0x18a9849",
          "transactionHash": "0x60dd20cc9517d9b62152fbd577aa8813b34fa5434538e3f7bcb3cc054224dcb9",
          "transactionIndex": "0x7",
          "logIndex": "0x2f",
          "removed": false
        },
        {
          "address": "0x765de816845861e75a25fca122bb6898b8b1282a",
          "topics": [
            "0xddf252ad1be2c89b69c2b068fc378daa952ba7f163c4a11628f55a4df523b3ef",
            "0x000000000000000000000000777a8255ca72412f0d706dc03c9d1987306b4cad",
            "0x0000000000000000000000000000000000000000000000000000000000000000"
          ],
          "data": "0x000000000000000000000000000000000000000000000000000378ba8c2137f6",
          "blockHash": "0xdeacf6b872685313548db12f4b43f23435ded71134a227a3dde6b26d28b7d0ac",
          "blockNumber": "0x18a9849",
          "transactionHash": "0x60dd20cc9517d9b62152fbd577aa8813b34fa5434538e3f7bcb3cc054224dcb9",
          "transactionIndex": "0x7",
          "logIndex": "0x30",
          "removed": false
        },
        {
          "address": "0xeb466342c4d449bc9f53a865d5cb90586f405215",
          "topics": [
            "0xddf252ad1be2c89b69c2b068fc378daa952ba7f163c4a11628f55a4df523b3ef",
            "0x0000000000000000000000009380fa34fd9e4fd14c06305fd7b6199089ed4eb9",
            "0x000000000000000000000000e35cbf589eea1bee0cad7575db96fd430020a14f"
          ],
          "data": "0x00000000000000000000000000000000000000000000000000000000000003d1",
          "blockHash": "0xdeacf6b872685313548db12f4b43f23435ded71134a227a3dde6b26d28b7d0ac",
          "blockNumber": "0x18a9849",
          "transactionHash": "0x60dd20cc9517d9b62152fbd577aa8813b34fa5434538e3f7bcb3cc054224dcb9",
          "transactionIndex": "0x7",
          "logIndex": "0x31",
          "removed": false
        },
        {
          "address": "0x9380fa34fd9e4fd14c06305fd7b6199089ed4eb9",
          "topics": [
            "0xc171b15fb47a5beb3e11b1951d4518544f699edd6acd893d8695c91703922b60",
            "0x000000000000000000000000777a8255ca72412f0d706dc03c9d1987306b4cad",
            "0x000000000000000000000000e35cbf589eea1bee0cad7575db96fd430020a14f"
          ],
          "data": "0x00000000000000000000000000000000000000000000000000000000000003d1000000000000000000000000eb466342c4d449bc9f53a865d5cb90586f405215",
          "blockHash": "0xdeacf6b872685313548db12f4b43f23435ded71134a227a3dde6b26d28b7d0ac",
          "blockNumber": "0x18a9849",
          "transactionHash": "0x60dd20cc9517d9b62152fbd577aa8813b34fa5434538e3f7bcb3cc054224dcb9",
          "transactionIndex": "0x7",
          "logIndex": "0x32",
          "removed": false
        },
        {
          "address": "0x777a8255ca72412f0d706dc03c9d1987306b4cad",
          "topics": [
            "0xe7b046415cac9de47940c3087e06db13a0e058ccf53ac5f0edd49ebb4c2c3a6f",
            "0x0d739efbfc30f303e8d1976c213b4040850d1af40f174f4169b846f6fd3d2f20",
            "0x000000000000000000000000e35cbf589eea1bee0cad7575db96fd430020a14f",
            "0x000000000000000000000000765de816845861e75a25fca122bb6898b8b1282a"
          ],
          "data": "0x00000000000000000000000022d9db95e6ae61c104a7b6f6c78d7993b94ec901000000000000000000000000eb466342c4d449bc9f53a865d5cb90586f405215000000000000000000000000000000000000000000000000000378ba8c2137f600000000000000000000000000000000000000000000000000000000000003d1",
          "blockHash": "0xdeacf6b872685313548db12f4b43f23435ded71134a227a3dde6b26d28b7d0ac",
          "blockNumber": "0x18a9849",
          "transactionHash": "0x60dd20cc9517d9b62152fbd577aa8813b34fa5434538e3f7bcb3cc054224dcb9",
          "transactionIndex": "0x7",
          "logIndex": "0x33",
          "removed": false
        },
        {
          "address": "0xeb466342c4d449bc9f53a865d5cb90586f405215",
          "topics": [
            "0x8c5be1e5ebec7d5bd14f71427d1e84f3dd0314c0f7b2291e5b200ac8c7c3b925",
            "0x000000000000000000000000e35cbf589eea1bee0cad7575db96fd430020a14f",
            "0x000000000000000000000000777a8255ca72412f0d706dc03c9d1987306b4cad"
          ],
          "data": "0x00000000000000000000000000000000000000000000000000000000000003d1",
          "blockHash": "0xdeacf6b872685313548db12f4b43f23435ded71134a227a3dde6b26d28b7d0ac",
          "blockNumber": "0x18a9849",
          "transactionHash": "0x60dd20cc9517d9b62152fbd577aa8813b34fa5434538e3f7bcb3cc054224dcb9",
          "transactionIndex": "0x7",
          "logIndex": "0x34",
          "removed": false
        },
        {
          "address": "0x22d9db95e6ae61c104a7b6f6c78d7993b94ec901",
          "topics": [
            "0x949f5db193cbfa01f2d443b1c656bfede15497de0d86838cea089bd60c438342",
            "0xf418803158d881fda22694067bf6479476cec22ecfeeca2f6a65a6259bdbb9c0"
          ],
          "data": "0x000000000000000000000000000000000000000000017d2a320dd74555000000000000000000000000000000000000000000000000019d11bcb1543d644b84ef",
          "blockHash": "0xdeacf6b872685313548db12f4b43f23435ded71134a227a3dde6b26d28b7d0ac",
          "blockNumber": "0x18a9849",
          "transactionHash": "0x60dd20cc9517d9b62152fbd577aa8813b34fa5434538e3f7bcb3cc054224dcb9",
          "transactionIndex": "0x7",
          "logIndex": "0x35",
          "removed": false
        },
        {
          "address": "0xeb466342c4d449bc9f53a865d5cb90586f405215",
          "topics": [
            "0x8c5be1e5ebec7d5bd14f71427d1e84f3dd0314c0f7b2291e5b200ac8c7c3b925",
            "0x000000000000000000000000e35cbf589eea1bee0cad7575db96fd430020a14f",
            "0x000000000000000000000000777a8255ca72412f0d706dc03c9d1987306b4cad"
          ],
          "data": "0x0000000000000000000000000000000000000000000000000000000000000000",
          "blockHash": "0xdeacf6b872685313548db12f4b43f23435ded71134a227a3dde6b26d28b7d0ac",
          "blockNumber": "0x18a9849",
          "transactionHash": "0x60dd20cc9517d9b62152fbd577aa8813b34fa5434538e3f7bcb3cc054224dcb9",
          "transactionIndex": "0x7",
          "logIndex": "0x36",
          "removed": false
        },
        {
          "address": "0xeb466342c4d449bc9f53a865d5cb90586f405215",
          "topics": [
            "0xddf252ad1be2c89b69c2b068fc378daa952ba7f163c4a11628f55a4df523b3ef",
            "0x000000000000000000000000e35cbf589eea1bee0cad7575db96fd430020a14f",
            "0x0000000000000000000000009380fa34fd9e4fd14c06305fd7b6199089ed4eb9"
          ],
          "data": "0x00000000000000000000000000000000000000000000000000000000000003d1",
          "blockHash": "0xdeacf6b872685313548db12f4b43f23435ded71134a227a3dde6b26d28b7d0ac",
          "blockNumber": "0x18a9849",
          "transactionHash": "0x60dd20cc9517d9b62152fbd577aa8813b34fa5434538e3f7bcb3cc054224dcb9",
          "transactionIndex": "0x7",
          "logIndex": "0x37",
          "removed": false
        },
        {
          "address": "0xd8763cba276a3738e6de85b4b3bf5fded6d6ca73",
          "topics": [
            "0xddf252ad1be2c89b69c2b068fc378daa952ba7f163c4a11628f55a4df523b3ef",
            "0x0000000000000000000000000000000000000000000000000000000000000000",
            "0x000000000000000000000000e35cbf589eea1bee0cad7575db96fd430020a14f"
          ],
          "data": "0x000000000000000000000000000000000000000000000000000331e51efc8168",
          "blockHash": "0xdeacf6b872685313548db12f4b43f23435ded71134a227a3dde6b26d28b7d0ac",
          "blockNumber": "0x18a9849",
          "transactionHash": "0x60dd20cc9517d9b62152fbd577aa8813b34fa5434538e3f7bcb3cc054224dcb9",
          "transactionIndex": "0x7",
          "logIndex": "0x38",
          "removed": false
        },
        {
          "address": "0x777a8255ca72412f0d706dc03c9d1987306b4cad",
          "topics": [
            "0xe7b046415cac9de47940c3087e06db13a0e058ccf53ac5f0edd49ebb4c2c3a6f",
            "0xf418803158d881fda22694067bf6479476cec22ecfeeca2f6a65a6259bdbb9c0",
            "0x000000000000000000000000e35cbf589eea1bee0cad7575db96fd430020a14f",
            "0x000000000000000000000000eb466342c4d449bc9f53a865d5cb90586f405215"
          ],
          "data": "0x00000000000000000000000022d9db95e6ae61c104a7b6f6c78d7993b94ec901000000000000000000000000d8763cba276a3738e6de85b4b3bf5fded6d6ca7300000000000000000000000000000000000000000000000000000000000003d1000000000000000000000000000000000000000000000000000331e51efc8168",
          "blockHash": "0xdeacf6b872685313548db12f4b43f23435ded71134a227a3dde6b26d28b7d0ac",
          "blockNumber": "0x18a9849",
          "transactionHash": "0x60dd20cc9517d9b62152fbd577aa8813b34fa5434538e3f7bcb3cc054224dcb9",
          "transactionIndex": "0x7",
          "logIndex": "0x39",
          "removed": false
        },
        {
          "address": "0xd8763cba276a3738e6de85b4b3bf5fded6d6ca73",
          "topics": [
            "0x8c5be1e5ebec7d5bd14f71427d1e84f3dd0314c0f7b2291e5b200ac8c7c3b925",
            "0x000000000000000000000000e35cbf589eea1bee0cad7575db96fd430020a14f",
            "0x000000000000000000000000777a8255ca72412f0d706dc03c9d1987306b4cad"
          ],
          "data": "0x000000000000000000000000000000000000000000000000000331354e8ff783",
          "blockHash": "0xdeacf6b872685313548db12f4b43f23435ded71134a227a3dde6b26d28b7d0ac",
          "blockNumber": "0x18a9849",
          "transactionHash": "0x60dd20cc9517d9b62152fbd577aa8813b34fa5434538e3f7bcb3cc054224dcb9",
          "transactionIndex": "0x7",
          "logIndex": "0x3a",
          "removed": false
        },
        {
          "address": "0x22d9db95e6ae61c104a7b6f6c78d7993b94ec901",
          "topics": [
            "0x949f5db193cbfa01f2d443b1c656bfede15497de0d86838cea089bd60c438342",
            "0xfca6d94b46122eb9a4b86cf9d3e1e856fea8a826d0fc26c5baf17c43fbaf0f48"
          ],
          "data": "0x00000000000000000000000000000000000000000009ed194db19b238c00000000000000000000000000000000000000000000000009f1c3f03f814bee870868",
          "blockHash": "0xdeacf6b872685313548db12f4b43f23435ded71134a227a3dde6b26d28b7d0ac",
          "blockNumber": "0x18a9849",
          "transactionHash": "0x60dd20cc9517d9b62152fbd577aa8813b34fa5434538e3f7bcb3cc054224dcb9",
          "transactionIndex": "0x7",
          "logIndex": "0x3b",
          "removed": false
        },
        {
          "address": "0xd8763cba276a3738e6de85b4b3bf5fded6d6ca73",
          "topics": [
            "0x8c5be1e5ebec7d5bd14f71427d1e84f3dd0314c0f7b2291e5b200ac8c7c3b925",
            "0x000000000000000000000000e35cbf589eea1bee0cad7575db96fd430020a14f",
            "0x000000000000000000000000777a8255ca72412f0d706dc03c9d1987306b4cad"
          ],
          "data": "0x0000000000000000000000000000000000000000000000000000000000000000",
          "blockHash": "0xdeacf6b872685313548db12f4b43f23435ded71134a227a3dde6b26d28b7d0ac",
          "blockNumber": "0x18a9849",
          "transactionHash": "0x60dd20cc9517d9b62152fbd577aa8813b34fa5434538e3f7bcb3cc054224dcb9",
          "transactionIndex": "0x7",
          "logIndex": "0x3c",
          "removed": false
        },
        {
          "address": "0xd8763cba276a3738e6de85b4b3bf5fded6d6ca73",
          "topics": [
            "0xddf252ad1be2c89b69c2b068fc378daa952ba7f163c4a11628f55a4df523b3ef",
            "0x000000000000000000000000e35cbf589eea1bee0cad7575db96fd430020a14f",
            "0x000000000000000000000000777a8255ca72412f0d706dc03c9d1987306b4cad"
          ],
          "data": "0x000000000000000000000000000000000000000000000000000331354e8ff783",
          "blockHash": "0xdeacf6b872685313548db12f4b43f23435ded71134a227a3dde6b26d28b7d0ac",
          "blockNumber": "0x18a9849",
          "transactionHash": "0x60dd20cc9517d9b62152fbd577aa8813b34fa5434538e3f7bcb3cc054224dcb9",
          "transactionIndex": "0x7",
          "logIndex": "0x3d",
          "removed": false
        },
        {
          "address": "0xd8763cba276a3738e6de85b4b3bf5fded6d6ca73",
          "topics": [
            "0xddf252ad1be2c89b69c2b068fc378daa952ba7f163c4a11628f55a4df523b3ef",
            "0x000000000000000000000000777a8255ca72412f0d706dc03c9d1987306b4cad",
            "0x0000000000000000000000000000000000000000000000000000000000000000"
          ],
          "data": "0x000000000000000000000000000000000000000000000000000331354e8ff783",
          "blockHash": "0xdeacf6b872685313548db12f4b43f23435ded71134a227a3dde6b26d28b7d0ac",
          "blockNumber": "0x18a9849",
          "transactionHash": "0x60dd20cc9517d9b62152fbd577aa8813b34fa5434538e3f7bcb3cc054224dcb9",
          "transactionIndex": "0x7",
          "logIndex": "0x3e",
          "removed": false
        },
        {
          "address": "0x061cc5a2c863e0c1cb404006d559db18a34c762d",
          "topics": [
            "0xddf252ad1be2c89b69c2b068fc378daa952ba7f163c4a11628f55a4df523b3ef",
            "0x0000000000000000000000009380fa34fd9e4fd14c06305fd7b6199089ed4eb9",
            "0x000000000000000000000000e35cbf589eea1bee0cad7575db96fd430020a14f"
          ],
          "data": "0x0000000000000000000000000000000000000000000000000000000000000384",
          "blockHash": "0xdeacf6b872685313548db12f4b43f23435ded71134a227a3dde6b26d28b7d0ac",
          "blockNumber": "0x18a9849",
          "transactionHash": "0x60dd20cc9517d9b62152fbd577aa8813b34fa5434538e3f7bcb3cc054224dcb9",
          "transactionIndex": "0x7",
          "logIndex": "0x3f",
          "removed": false
        },
        {
          "address": "0x9380fa34fd9e4fd14c06305fd7b6199089ed4eb9",
          "topics": [
            "0xc171b15fb47a5beb3e11b1951d4518544f699edd6acd893d8695c91703922b60",
            "0x000000000000000000000000777a8255ca72412f0d706dc03c9d1987306b4cad",
            "0x000000000000000000000000e35cbf589eea1bee0cad7575db96fd430020a14f"
          ],
          "data": "0x0000000000000000000000000000000000000000000000000000000000000384000000000000000000000000061cc5a2c863e0c1cb404006d559db18a34c762d",
          "blockHash": "0xdeacf6b872685313548db12f4b43f23435ded71134a227a3dde6b26d28b7d0ac",
          "blockNumber": "0x18a9849",
          "transactionHash": "0x60dd20cc9517d9b62152fbd577aa8813b34fa5434538e3f7bcb3cc054224dcb9",
          "transactionIndex": "0x7",
          "logIndex": "0x40",
          "removed": false
        },
        {
          "address": "0x777a8255ca72412f0d706dc03c9d1987306b4cad",
          "topics": [
            "0xe7b046415cac9de47940c3087e06db13a0e058ccf53ac5f0edd49ebb4c2c3a6f",
            "0xfca6d94b46122eb9a4b86cf9d3e1e856fea8a826d0fc26c5baf17c43fbaf0f48",
            "0x000000000000000000000000e35cbf589eea1bee0cad7575db96fd430020a14f",
            "0x000000000000000000000000d8763cba276a3738e6de85b4b3bf5fded6d6ca73"
          ],
          "data": "0x00000000000000000000000022d9db95e6ae61c104a7b6f6c78d7993b94ec901000000000000000000000000061cc5a2c863e0c1cb404006d559db18a34c762d000000000000000000000000000000000000000000000000000331354e8ff7830000000000000000000000000000000000000000000000000000000000000384",
          "blockHash": "0xdeacf6b872685313548db12f4b43f23435ded71134a227a3dde6b26d28b7d0ac",
          "blockNumber": "0x18a9849",
          "transactionHash": "0x60dd20cc9517d9b62152fbd577aa8813b34fa5434538e3f7bcb3cc054224dcb9",
          "transactionIndex": "0x7",
          "logIndex": "0x41",
          "removed": false
        },
        {
          "address": "0x061cc5a2c863e0c1cb404006d559db18a34c762d",
          "topics": [
            "0xddf252ad1be2c89b69c2b068fc378daa952ba7f163c4a11628f55a4df523b3ef",
            "0x000000000000000000000000e35cbf589eea1bee0cad7575db96fd430020a14f",
            "0x0000000000000000000000008e8e5f2eb9b8cd64942777e287982ff986a2c5a1"
          ],
          "data": "0x0000000000000000000000000000000000000000000000000000000000000384",
          "blockHash": "0xdeacf6b872685313548db12f4b43f23435ded71134a227a3dde6b26d28b7d0ac",
          "blockNumber": "0x18a9849",
          "transactionHash": "0x60dd20cc9517d9b62152fbd577aa8813b34fa5434538e3f7bcb3cc054224dcb9",
          "transactionIndex": "0x7",
          "logIndex": "0x42",
          "removed": false
        }
      ],
      "logsBloom": "0x408000000001000102001000000002000000000080000000000000000000000000000a0000000100000020002000000100000000000000000000000000200010020000002000000200000048000000110040802000100000000400000000000000008080020000000000000000000c0000080000000000000000011000204000000800000020001040100000100000000000000000000000080400004002000002000100020000010000000040000000000000000000000000004020000408000200000202000000000002000100200000280004000000000000010000002000001000008000c010000c40000000000000000080000000100000000000000000",
      "type": "0x0",
      "transactionHash": "0x60dd20cc9517d9b62152fbd577aa8813b34fa5434538e3f7bcb3cc054224dcb9",
      "transactionIndex": "0x7",
      "blockHash": "0xdeacf6b872685313548db12f4b43f23435ded71134a227a3dde6b26d28b7d0ac",
      "blockNumber": "0x18a9849",
      "gasUsed": "0xe2f75",
      "effectiveGasPrice": "0x2540be400",
      "from": "0x8e8e5f2eb9b8cd64942777e287982ff986a2c5a1",
      "to": "0xe35cbf589eea1bee0cad7575db96fd430020a14f",
      "contractAddress": null
    }
  ],
  "libraries": [],
  "pending": [],
  "returns": {},
  "timestamp": 1716971924,
  "chain": 42220,
  "commit": "43650ae"
}